{
  "contractName": "PayWithSig",
  "abi": [
    {
      "inputs": [],
      "stateMutability": "payable",
      "type": "constructor"
    },
    {
      "anonymous": false,
      "inputs": [
        {
          "indexed": true,
          "internalType": "uint256",
          "name": "_timestamp",
          "type": "uint256"
        },
        {
          "indexed": false,
          "internalType": "uint256",
          "name": "amount",
          "type": "uint256"
        }
      ],
      "name": "Deposit",
      "type": "event"
    },
    {
      "anonymous": false,
      "inputs": [
        {
          "indexed": true,
          "internalType": "uint256",
          "name": "_timestamp",
          "type": "uint256"
        },
        {
          "indexed": false,
          "internalType": "uint256",
          "name": "amount",
          "type": "uint256"
        },
        {
          "indexed": true,
          "internalType": "address",
          "name": "_withdrawer",
          "type": "address"
        }
      ],
      "name": "Withdrawal",
      "type": "event"
    },
    {
      "stateMutability": "payable",
      "type": "fallback"
    },
    {
      "inputs": [
        {
          "internalType": "uint256",
          "name": "amount",
          "type": "uint256"
        },
        {
          "internalType": "uint256",
          "name": "nonce",
          "type": "uint256"
        },
        {
          "internalType": "bytes",
          "name": "signature",
          "type": "bytes"
        }
      ],
      "name": "claimPayment",
      "outputs": [],
      "stateMutability": "nonpayable",
      "type": "function"
    },
    {
      "inputs": [],
      "name": "shutdown",
      "outputs": [],
      "stateMutability": "nonpayable",
      "type": "function"
    }
  ],
  "bytecode": "0x6080604052336000806101000a81548173ffffffffffffffffffffffffffffffffffffffff021916908373ffffffffffffffffffffffffffffffffffffffff16021790555061079e806100536000396000f3fe60806040526004361061002d5760003560e01c8063a90ae88714610030578063fc0e74d1146100595761002e565b5b005b34801561003c57600080fd5b506100576004803603810190610052919061047f565b610070565b005b34801561006557600080fd5b5061006e6101ad565b005b6001600083815260200190815260200160002060009054906101000a900460ff161561009b57600080fd5b600180600084815260200190815260200160002060006101000a81548160ff02191690831515021790555060006100fd338585306040516020016100e29493929190610602565b6040516020818303038152906040528051906020012061021e565b905060008054906101000a900473ffffffffffffffffffffffffffffffffffffffff1673ffffffffffffffffffffffffffffffffffffffff16610140828461024e565b73ffffffffffffffffffffffffffffffffffffffff161461016057600080fd5b3373ffffffffffffffffffffffffffffffffffffffff166108fc859081150290604051600060405180830381858888f193505050501580156101a6573d6000803e3d6000fd5b5050505050565b60008054906101000a900473ffffffffffffffffffffffffffffffffffffffff1673ffffffffffffffffffffffffffffffffffffffff163373ffffffffffffffffffffffffffffffffffffffff161461020557600080fd5b3373ffffffffffffffffffffffffffffffffffffffff16ff5b60008160405160200161023191906106d2565b604051602081830303815290604052805190602001209050919050565b60008060008061025d856102bd565b925092509250600186848484604051600081526020016040526040516102869493929190610723565b6020604051602081039080840390855afa1580156102a8573d6000803e3d6000fd5b50505060206040510351935050505092915050565b600080600060418451146102d057600080fd5b6020840151915060408401519050606084015160001a92509193909250565b6000604051905090565b600080fd5b600080fd5b6000819050919050565b61031681610303565b811461032157600080fd5b50565b6000813590506103338161030d565b92915050565b600080fd5b600080fd5b6000601f19601f8301169050919050565b7f4e487b7100000000000000000000000000000000000000000000000000000000600052604160045260246000fd5b61038c82610343565b810181811067ffffffffffffffff821117156103ab576103aa610354565b5b80604052505050565b60006103be6102ef565b90506103ca8282610383565b919050565b600067ffffffffffffffff8211156103ea576103e9610354565b5b6103f382610343565b9050602081019050919050565b82818337600083830152505050565b600061042261041d846103cf565b6103b4565b90508281526020810184848401111561043e5761043d61033e565b5b610449848285610400565b509392505050565b600082601f83011261046657610465610339565b5b813561047684826020860161040f565b91505092915050565b600080600060608486031215610498576104976102f9565b5b60006104a686828701610324565b93505060206104b786828701610324565b925050604084013567ffffffffffffffff8111156104d8576104d76102fe565b5b6104e486828701610451565b9150509250925092565b600073ffffffffffffffffffffffffffffffffffffffff82169050919050565b6000610519826104ee565b9050919050565b60008160601b9050919050565b600061053882610520565b9050919050565b600061054a8261052d565b9050919050565b61056261055d8261050e565b61053f565b82525050565b6000819050919050565b61058361057e82610303565b610568565b82525050565b6000819050919050565b60006105ae6105a96105a4846104ee565b610589565b6104ee565b9050919050565b60006105c082610593565b9050919050565b60006105d2826105b5565b9050919050565b60006105e48261052d565b9050919050565b6105fc6105f7826105c7565b6105d9565b82525050565b600061060e8287610551565b60148201915061061e8286610572565b60208201915061062e8285610572565b60208201915061063e82846105eb565b60148201915081905095945050505050565b600081905092915050565b7f19457468657265756d205369676e6564204d6573736167653a0a333200000000600082015250565b6000610691601c83610650565b915061069c8261065b565b601c82019050919050565b6000819050919050565b6000819050919050565b6106cc6106c7826106a7565b6106b1565b82525050565b60006106dd82610684565b91506106e982846106bb565b60208201915081905092915050565b610701816106a7565b82525050565b600060ff82169050919050565b61071d81610707565b82525050565b600060808201905061073860008301876106f8565b6107456020830186610714565b61075260408301856106f8565b61075f60608301846106f8565b9594505050505056fea2646970667358221220a2750f147e02bca97f0edfe34b3f52c0d6bf8b7c2beb1e2ddcba6a5930c3b64564736f6c634300080b0033",
  "immutableReferences": {},
  "source": "// SPDX-License-Identifier: GPL-3.0\npragma solidity >=0.7.0 <0.9.0;\n\n/// @title A smart contract that escrows funds between contractors. \n///        An employer will deploy the smart contract and fund it. contractor can then sign a transacion\n/// @author The name of the author\n/// @notice Explain to an end user what this does\n/// @dev Explain to a developer any extra details\ncontract PayWithSig {\n    \n    event Deposit(uint indexed _timestamp, uint amount);\n    event Withdrawal(uint indexed _timestamp, uint amount, address indexed _withdrawer);\n\n    address owner = msg.sender;\n    mapping(uint256 => bool) usedNonces;\n\n    constructor() payable {}\n\n    function claimPayment(\n        uint256 amount,\n        uint256 nonce,\n        bytes memory signature\n    ) external {\n        require(!usedNonces[nonce]);\n        usedNonces[nonce] = true;\n        // this recreates the message that was signed on the client\n        bytes32 message = prefixed(\n            keccak256(abi.encodePacked(msg.sender, amount, nonce, this))\n        );\n        require(recoverSigner(message, signature) == owner);\n        payable(msg.sender).transfer(amount);\n    }\n\n    /// destroy the contract and reclaim the leftover funds.\n    function shutdown() external {\n        require(msg.sender == owner);\n        selfdestruct(payable(msg.sender));\n    }\n\n    /// signature methods.\n    function splitSignature(bytes memory sig)\n        internal\n        pure\n        returns (\n            uint8 v,\n            bytes32 r,\n            bytes32 s\n        )\n    {\n        require(sig.length == 65);\n        assembly {\n            // first 32 bytes, after the length prefix.\n            r := mload(add(sig, 32))\n            // second 32 bytes.\n            s := mload(add(sig, 64))\n            // final byte (first byte of the next 32 bytes).\n            v := byte(0, mload(add(sig, 96)))\n        }\n        return (v, r, s);\n    }\n\n    function recoverSigner(bytes32 message, bytes memory sig)\n        internal\n        pure\n        returns (address)\n    {\n        (uint8 v, bytes32 r, bytes32 s) = splitSignature(sig);\n        return ecrecover(message, v, r, s);\n    }\n\n    /// builds a prefixed hash to mimic the behavior of eth_sign.\n    function prefixed(bytes32 hash) internal pure returns (bytes32) {\n        return\n            keccak256(\n                abi.encodePacked(\"\\x19Ethereum Signed Message:\\n32\", hash)\n            );\n    }\n\n    fallback() external payable{\n\n    }\n}\n",
  "sourcePath": "/mnt/c/Users/user/documents/coding/blockgames/projects/State Channels/contracts/PaymentChannel.sol",
  "compiler": {
    "name": "solc",
    "version": "0.8.11+commit.d7f03943.Emscripten.clang"
  },
  "schemaVersion": "3.4.5",
  "updatedAt": "2022-03-31T01:09:44.344Z",
  "devdoc": {
    "author": "The name of the author",
    "details": "Explain to a developer any extra details",
    "kind": "dev",
    "methods": {},
    "title": "A smart contract that escrows funds between contractors.         An employer will deploy the smart contract and fund it. contractor can then sign a transacion",
    "version": 1
  },
  "userdoc": {
    "kind": "user",
    "methods": {
      "shutdown()": {
        "notice": "destroy the contract and reclaim the leftover funds."
      }
    },
    "notice": "Explain to an end user what this does",
    "version": 1
  }
}