{
  "contractName": "ReceiverPays",
  "abi": [
    {
      "inputs": [],
      "stateMutability": "payable",
      "type": "constructor"
    },
    {
      "inputs": [
        {
          "internalType": "uint256",
          "name": "amount",
          "type": "uint256"
        },
        {
          "internalType": "uint256",
          "name": "nonce",
          "type": "uint256"
        },
        {
          "internalType": "bytes",
          "name": "signature",
          "type": "bytes"
        }
      ],
      "name": "claimPayment",
      "outputs": [],
      "stateMutability": "nonpayable",
      "type": "function"
    },
    {
      "inputs": [],
      "name": "shutdown",
      "outputs": [],
      "stateMutability": "nonpayable",
      "type": "function"
    }
  ],
  "bytecode": "0x6080604052336000806101000a81548173ffffffffffffffffffffffffffffffffffffffff021916908373ffffffffffffffffffffffffffffffffffffffff16021790555061077d806100536000396000f3fe608060405234801561001057600080fd5b50600436106100365760003560e01c8063a90ae8871461003b578063fc0e74d114610057575b600080fd5b61005560048036038101906100509190610470565b610061565b005b61005f61019e565b005b6001600083815260200190815260200160002060009054906101000a900460ff161561008c57600080fd5b600180600084815260200190815260200160002060006101000a81548160ff02191690831515021790555060006100ee338585306040516020016100d394939291906105e1565b6040516020818303038152906040528051906020012061020f565b905060008054906101000a900473ffffffffffffffffffffffffffffffffffffffff1673ffffffffffffffffffffffffffffffffffffffff16610131828461023f565b73ffffffffffffffffffffffffffffffffffffffff161461015157600080fd5b3373ffffffffffffffffffffffffffffffffffffffff166108fc859081150290604051600060405180830381858888f19350505050158015610197573d6000803e3d6000fd5b5050505050565b60008054906101000a900473ffffffffffffffffffffffffffffffffffffffff1673ffffffffffffffffffffffffffffffffffffffff163373ffffffffffffffffffffffffffffffffffffffff16146101f657600080fd5b3373ffffffffffffffffffffffffffffffffffffffff16ff5b60008160405160200161022291906106b1565b604051602081830303815290604052805190602001209050919050565b60008060008061024e856102ae565b925092509250600186848484604051600081526020016040526040516102779493929190610702565b6020604051602081039080840390855afa158015610299573d6000803e3d6000fd5b50505060206040510351935050505092915050565b600080600060418451146102c157600080fd5b6020840151915060408401519050606084015160001a92509193909250565b6000604051905090565b600080fd5b600080fd5b6000819050919050565b610307816102f4565b811461031257600080fd5b50565b600081359050610324816102fe565b92915050565b600080fd5b600080fd5b6000601f19601f8301169050919050565b7f4e487b7100000000000000000000000000000000000000000000000000000000600052604160045260246000fd5b61037d82610334565b810181811067ffffffffffffffff8211171561039c5761039b610345565b5b80604052505050565b60006103af6102e0565b90506103bb8282610374565b919050565b600067ffffffffffffffff8211156103db576103da610345565b5b6103e482610334565b9050602081019050919050565b82818337600083830152505050565b600061041361040e846103c0565b6103a5565b90508281526020810184848401111561042f5761042e61032f565b5b61043a8482856103f1565b509392505050565b600082601f8301126104575761045661032a565b5b8135610467848260208601610400565b91505092915050565b600080600060608486031215610489576104886102ea565b5b600061049786828701610315565b93505060206104a886828701610315565b925050604084013567ffffffffffffffff8111156104c9576104c86102ef565b5b6104d586828701610442565b9150509250925092565b600073ffffffffffffffffffffffffffffffffffffffff82169050919050565b600061050a826104df565b9050919050565b60008160601b9050919050565b600061052982610511565b9050919050565b600061053b8261051e565b9050919050565b61055361054e826104ff565b610530565b82525050565b6000819050919050565b61057461056f826102f4565b610559565b82525050565b6000819050919050565b600061059f61059a610595846104df565b61057a565b6104df565b9050919050565b60006105b182610584565b9050919050565b60006105c3826105a6565b9050919050565b6105db6105d6826105b8565b610530565b82525050565b60006105ed8287610542565b6014820191506105fd8286610563565b60208201915061060d8285610563565b60208201915061061d82846105ca565b60148201915081905095945050505050565b600081905092915050565b7f19457468657265756d205369676e6564204d6573736167653a0a333200000000600082015250565b6000610670601c8361062f565b915061067b8261063a565b601c82019050919050565b6000819050919050565b6000819050919050565b6106ab6106a682610686565b610690565b82525050565b60006106bc82610663565b91506106c8828461069a565b60208201915081905092915050565b6106e081610686565b82525050565b600060ff82169050919050565b6106fc816106e6565b82525050565b600060808201905061071760008301876106d7565b61072460208301866106f3565b61073160408301856106d7565b61073e60608301846106d7565b9594505050505056fea2646970667358221220db127def6a18797e8db213afa76bb5df9da3ba352ce400634cfd5a182f4ee65564736f6c634300080b0033",
  "immutableReferences": {},
  "source": "// SPDX-License-Identifier: GPL-3.0\npragma solidity >=0.7.0 <0.9.0;\n\ncontract ReceiverPays {\n    address owner = msg.sender;\n    mapping(uint256 => bool) usedNonces;\n\n    constructor() payable {}\n\n    function claimPayment(\n        uint256 amount,\n        uint256 nonce,\n        bytes memory signature\n    ) external {\n        require(!usedNonces[nonce]);\n        usedNonces[nonce] = true;\n        // this recreates the message that was signed on the client\n        bytes32 message = prefixed(\n            keccak256(abi.encodePacked(msg.sender, amount, nonce, this))\n        );\n        require(recoverSigner(message, signature) == owner);\n        payable(msg.sender).transfer(amount);\n    }\n\n    /// destroy the contract and reclaim the leftover funds.\n    function shutdown() external {\n        require(msg.sender == owner);\n        selfdestruct(payable(msg.sender));\n    }\n\n    /// signature methods.\n    function splitSignature(bytes memory sig)\n        internal\n        pure\n        returns (\n            uint8 v,\n            bytes32 r,\n            bytes32 s\n        )\n    {\n        require(sig.length == 65);\n        assembly {\n            // first 32 bytes, after the length prefix.\n            r := mload(add(sig, 32))\n            // second 32 bytes.\n            s := mload(add(sig, 64))\n            // final byte (first byte of the next 32 bytes).\n            v := byte(0, mload(add(sig, 96)))\n        }\n        return (v, r, s);\n    }\n\n    function recoverSigner(bytes32 message, bytes memory sig)\n        internal\n        pure\n        returns (address)\n    {\n        (uint8 v, bytes32 r, bytes32 s) = splitSignature(sig);\n        return ecrecover(message, v, r, s);\n    }\n\n    /// builds a prefixed hash to mimic the behavior of eth_sign.\n    function prefixed(bytes32 hash) internal pure returns (bytes32) {\n        return\n            keccak256(\n                abi.encodePacked(\"\\x19Ethereum Signed Message:\\n32\", hash)\n            );\n    }\n}\n",
  "sourcePath": "/mnt/c/Users/user/documents/coding/blockgames/projects/State Channels/contracts/PaymentChannel.sol",
  "compiler": {
    "name": "solc",
    "version": "0.8.11+commit.d7f03943.Emscripten.clang"
  },
  "schemaVersion": "3.4.5",
  "updatedAt": "2022-03-30T16:21:03.271Z",
  "devdoc": {
    "kind": "dev",
    "methods": {},
    "version": 1
  },
  "userdoc": {
    "kind": "user",
    "methods": {
      "shutdown()": {
        "notice": "destroy the contract and reclaim the leftover funds."
      }
    },
    "version": 1
  }
}