{
  "contractName": "AddrFromSig",
  "abi": [
    {
      "inputs": [
        {
          "internalType": "bytes32",
          "name": "_msgHsh",
          "type": "bytes32"
        },
        {
          "internalType": "bytes",
          "name": "_signature",
          "type": "bytes"
        }
      ],
      "name": "getSigner",
      "outputs": [
        {
          "internalType": "address",
          "name": "_addr",
          "type": "address"
        }
      ],
      "stateMutability": "pure",
      "type": "function"
    },
    {
      "inputs": [
        {
          "internalType": "bytes",
          "name": "sig",
          "type": "bytes"
        }
      ],
      "name": "splitSignature",
      "outputs": [
        {
          "internalType": "uint8",
          "name": "v",
          "type": "uint8"
        },
        {
          "internalType": "bytes32",
          "name": "r",
          "type": "bytes32"
        },
        {
          "internalType": "bytes32",
          "name": "s",
          "type": "bytes32"
        }
      ],
      "stateMutability": "pure",
      "type": "function"
    }
  ],
  "bytecode": "0x608060405234801561001057600080fd5b506105ec806100206000396000f3fe608060405234801561001057600080fd5b50600436106100365760003560e01c8063a7bb58031461003b578063f7b2ec0d1461006d575b600080fd5b61005560048036038101906100509190610315565b61009d565b60405161006493929190610393565b60405180910390f35b610087600480360381019061008291906103f6565b6100cf565b6040516100949190610493565b60405180910390f35b600080600060418451146100b057600080fd5b6020840151915060408401519050606084015160001a92509193909250565b60006100db83836100e3565b905092915050565b6000806000806100f28561009d565b92509250925060006040518060400160405280601c81526020017f19457468657265756d205369676e6564204d6573736167653a0a333200000000815250905060008188604051602001610147929190610549565b604051602081830303815290604052805190602001209050600181868686604051600081526020016040526040516101829493929190610571565b6020604051602081039080840390855afa1580156101a4573d6000803e3d6000fd5b505050602060405103519550505050505092915050565b6000604051905090565b600080fd5b600080fd5b600080fd5b600080fd5b6000601f19601f8301169050919050565b7f4e487b7100000000000000000000000000000000000000000000000000000000600052604160045260246000fd5b610222826101d9565b810181811067ffffffffffffffff82111715610241576102406101ea565b5b80604052505050565b60006102546101bb565b90506102608282610219565b919050565b600067ffffffffffffffff8211156102805761027f6101ea565b5b610289826101d9565b9050602081019050919050565b82818337600083830152505050565b60006102b86102b384610265565b61024a565b9050828152602081018484840111156102d4576102d36101d4565b5b6102df848285610296565b509392505050565b600082601f8301126102fc576102fb6101cf565b5b813561030c8482602086016102a5565b91505092915050565b60006020828403121561032b5761032a6101c5565b5b600082013567ffffffffffffffff811115610349576103486101ca565b5b610355848285016102e7565b91505092915050565b600060ff82169050919050565b6103748161035e565b82525050565b6000819050919050565b61038d8161037a565b82525050565b60006060820190506103a8600083018661036b565b6103b56020830185610384565b6103c26040830184610384565b949350505050565b6103d38161037a565b81146103de57600080fd5b50565b6000813590506103f0816103ca565b92915050565b6000806040838503121561040d5761040c6101c5565b5b600061041b858286016103e1565b925050602083013567ffffffffffffffff81111561043c5761043b6101ca565b5b610448858286016102e7565b9150509250929050565b600073ffffffffffffffffffffffffffffffffffffffff82169050919050565b600061047d82610452565b9050919050565b61048d81610472565b82525050565b60006020820190506104a86000830184610484565b92915050565b600081519050919050565b600081905092915050565b60005b838110156104e25780820151818401526020810190506104c7565b838111156104f1576000848401525b50505050565b6000610502826104ae565b61050c81856104b9565b935061051c8185602086016104c4565b80840191505092915050565b6000819050919050565b61054361053e8261037a565b610528565b82525050565b600061055582856104f7565b91506105618284610532565b6020820191508190509392505050565b60006080820190506105866000830187610384565b610593602083018661036b565b6105a06040830185610384565b6105ad6060830184610384565b9594505050505056fea2646970667358221220c6f9163a3e604442a9eb8fc2b3ac96a9b0b8bc68fcc9924b3b4d0aab0436839764736f6c634300080b0033",
  "immutableReferences": {},
  "source": "// SPDX-License-Identifier: MIT\r\npragma solidity ^0.8.11;\r\n\r\n///@notice Recover the address that was used to sign a message\r\ncontract AddrFromSig {\r\n    function getSigner(bytes32 _msgHsh, bytes memory _signature)\r\n        public\r\n        pure\r\n        returns (address _addr)\r\n    {\r\n        _addr = recoverSigner(_msgHsh, _signature);\r\n        return _addr;\r\n    }\r\n\r\n    \r\n    // Signature Methods\r\n\r\n    function splitSignature(bytes memory sig)\r\n        public\r\n        pure\r\n        returns (\r\n            uint8 v,\r\n            bytes32 r,\r\n            bytes32 s\r\n        )\r\n    {\r\n        require(sig.length == 65);\r\n        assembly {\r\n            // first 32 bytes, after the length prefix.\r\n            r := mload(add(sig, 32))\r\n            // second 32 bytes.\r\n            s := mload(add(sig, 64))\r\n            // final byte (first byte of the next 32 bytes).\r\n            v := byte(0, mload(add(sig, 96)))\r\n        }\r\n        return (v, r, s);\r\n    }\r\n\r\n    function recoverSigner(bytes32 message, bytes memory sig)\r\n        internal\r\n        pure\r\n        returns (address)\r\n    {\r\n        (uint8 v, bytes32 r, bytes32 s) = splitSignature(sig);\r\n        bytes memory prefix = \"\\x19Ethereum Signed Message:\\n32\";\r\n        bytes32 prefixedHash = keccak256(abi.encodePacked(prefix, message));\r\n        return ecrecover(prefixedHash, v, r, s);\r\n    }\r\n}",
  "sourcePath": "/mnt/c/users/user/documents/coding/blockgames/projects/Voting and Signatures/contracts/RetrieveAddress.sol",
  "compiler": {
    "name": "solc",
    "version": "0.8.11+commit.d7f03943.Emscripten.clang"
  },
  "schemaVersion": "3.4.5",
  "updatedAt": "2022-04-12T22:29:54.138Z",
  "devdoc": {
    "kind": "dev",
    "methods": {},
    "version": 1
  },
  "userdoc": {
    "kind": "user",
    "methods": {},
    "notice": "Recover the address that was used to sign a message",
    "version": 1
  }
}