{
  "contractName": "SimpleElection",
  "abi": [
    {
      "inputs": [
        {
          "internalType": "string[]",
          "name": "_nda",
          "type": "string[]"
        },
        {
          "internalType": "string[]",
          "name": "_candidates",
          "type": "string[]"
        }
      ],
      "stateMutability": "nonpayable",
      "type": "constructor"
    },
    {
      "inputs": [],
      "name": "ElectionHasEnded",
      "type": "error"
    },
    {
      "inputs": [],
      "name": "ElectionNotStarted",
      "type": "error"
    },
    {
      "anonymous": false,
      "inputs": [
        {
          "indexed": false,
          "internalType": "uint256",
          "name": "_candidateId",
          "type": "uint256"
        },
        {
          "indexed": false,
          "internalType": "string",
          "name": "_candidateName",
          "type": "string"
        }
      ],
      "name": "CandidateCreated",
      "type": "event"
    },
    {
      "anonymous": false,
      "inputs": [
        {
          "indexed": false,
          "internalType": "uint256[]",
          "name": "_winnerIds",
          "type": "uint256[]"
        },
        {
          "indexed": false,
          "internalType": "uint256",
          "name": "_winnerVoteCount",
          "type": "uint256"
        }
      ],
      "name": "ElectionEnded",
      "type": "event"
    },
    {
      "anonymous": false,
      "inputs": [
        {
          "indexed": false,
          "internalType": "uint256",
          "name": "_candidateId",
          "type": "uint256"
        },
        {
          "indexed": false,
          "internalType": "uint256",
          "name": "_candidateVoteCount",
          "type": "uint256"
        }
      ],
      "name": "VoteForCandidate",
      "type": "event"
    },
    {
      "inputs": [],
      "name": "adminCount",
      "outputs": [
        {
          "internalType": "uint256",
          "name": "",
          "type": "uint256"
        }
      ],
      "stateMutability": "view",
      "type": "function",
      "constant": true
    },
    {
      "inputs": [
        {
          "internalType": "uint256",
          "name": "",
          "type": "uint256"
        }
      ],
      "name": "admins",
      "outputs": [
        {
          "internalType": "address",
          "name": "",
          "type": "address"
        }
      ],
      "stateMutability": "view",
      "type": "function",
      "constant": true
    },
    {
      "inputs": [
        {
          "internalType": "uint256",
          "name": "",
          "type": "uint256"
        }
      ],
      "name": "candidates",
      "outputs": [
        {
          "internalType": "uint256",
          "name": "id",
          "type": "uint256"
        },
        {
          "internalType": "string",
          "name": "name",
          "type": "string"
        },
        {
          "internalType": "uint256",
          "name": "voteCount",
          "type": "uint256"
        }
      ],
      "stateMutability": "view",
      "type": "function",
      "constant": true
    },
    {
      "inputs": [],
      "name": "candidatesCount",
      "outputs": [
        {
          "internalType": "uint256",
          "name": "",
          "type": "uint256"
        }
      ],
      "stateMutability": "view",
      "type": "function",
      "constant": true
    },
    {
      "inputs": [],
      "name": "description",
      "outputs": [
        {
          "internalType": "string",
          "name": "",
          "type": "string"
        }
      ],
      "stateMutability": "view",
      "type": "function",
      "constant": true
    },
    {
      "inputs": [],
      "name": "isActive",
      "outputs": [
        {
          "internalType": "bool",
          "name": "",
          "type": "bool"
        }
      ],
      "stateMutability": "view",
      "type": "function",
      "constant": true
    },
    {
      "inputs": [],
      "name": "isEnded",
      "outputs": [
        {
          "internalType": "bool",
          "name": "",
          "type": "bool"
        }
      ],
      "stateMutability": "view",
      "type": "function",
      "constant": true
    },
    {
      "inputs": [],
      "name": "name",
      "outputs": [
        {
          "internalType": "string",
          "name": "",
          "type": "string"
        }
      ],
      "stateMutability": "view",
      "type": "function",
      "constant": true
    },
    {
      "inputs": [
        {
          "internalType": "address",
          "name": "",
          "type": "address"
        }
      ],
      "name": "voters",
      "outputs": [
        {
          "internalType": "bool",
          "name": "",
          "type": "bool"
        }
      ],
      "stateMutability": "view",
      "type": "function",
      "constant": true
    },
    {
      "inputs": [
        {
          "internalType": "uint256",
          "name": "",
          "type": "uint256"
        }
      ],
      "name": "winnerIds",
      "outputs": [
        {
          "internalType": "uint256",
          "name": "",
          "type": "uint256"
        }
      ],
      "stateMutability": "view",
      "type": "function",
      "constant": true
    },
    {
      "inputs": [],
      "name": "winnerVoteCount",
      "outputs": [
        {
          "internalType": "uint256",
          "name": "",
          "type": "uint256"
        }
      ],
      "stateMutability": "view",
      "type": "function",
      "constant": true
    },
    {
      "inputs": [
        {
          "internalType": "address",
          "name": "_newAdmin",
          "type": "address"
        }
      ],
      "name": "addAdmin",
      "outputs": [],
      "stateMutability": "nonpayable",
      "type": "function"
    },
    {
      "inputs": [],
      "name": "startElection",
      "outputs": [],
      "stateMutability": "nonpayable",
      "type": "function"
    },
    {
      "inputs": [],
      "name": "endElection",
      "outputs": [],
      "stateMutability": "nonpayable",
      "type": "function"
    },
    {
      "inputs": [
        {
          "internalType": "uint256",
          "name": "_candidateId",
          "type": "uint256"
        }
      ],
      "name": "vote",
      "outputs": [],
      "stateMutability": "nonpayable",
      "type": "function"
    },
    {
      "inputs": [
        {
          "internalType": "uint256",
          "name": "_candidateId",
          "type": "uint256"
        },
        {
          "internalType": "bytes",
          "name": "signature",
          "type": "bytes"
        },
        {
          "internalType": "address",
          "name": "_voter",
          "type": "address"
        }
      ],
      "name": "voteWithSig",
      "outputs": [],
      "stateMutability": "nonpayable",
      "type": "function"
    }
  ],
  "bytecode": "0x60806040526000600260006101000a81548160ff0219169083151502179055506000600260016101000a81548160ff021916908315150217905550600060055560006006553480156200005157600080fd5b506040516200239e3803806200239e83398181016040528101906200007791906200062a565b6200008833620000a260201b60201c565b6200009a82826200011360201b60201c565b505062000904565b8060036000600654815260200190815260200160002060006101000a81548173ffffffffffffffffffffffffffffffffffffffff021916908373ffffffffffffffffffffffffffffffffffffffff160217905550600660008154809291906200010b90620006e8565b919050555050565b60008151116200015a576040517f08c379a00000000000000000000000000000000000000000000000000000000081526004016200015190620007bd565b60405180910390fd5b81600081518110620001715762000170620007df565b5b60200260200101516000908051906020019062000190929190620002e1565b5081600181518110620001a857620001a7620007df565b5b602002602001015160019080519060200190620001c7929190620002e1565b5060005b8151811015620002195762000203828281518110620001ef57620001ee620007df565b5b60200260200101516200021e60201b60201c565b80806200021090620006e8565b915050620001cb565b505050565b60405180606001604052806005548152602001828152602001600081525060076000600554815260200190815260200160002060008201518160000155602082015181600101908051906020019062000279929190620002e1565b50604082015181600201559050507f78d27a3c512303f604b46bc28acc0ca45abe6420172a017c5a6dc585821eb63960055482604051620002bc9291906200086b565b60405180910390a160056000815480929190620002d990620006e8565b919050555050565b828054620002ef90620008ce565b90600052602060002090601f0160209004810192826200031357600085556200035f565b82601f106200032e57805160ff19168380011785556200035f565b828001600101855582156200035f579182015b828111156200035e57825182559160200191906001019062000341565b5b5090506200036e919062000372565b5090565b5b808211156200038d57600081600090555060010162000373565b5090565b6000604051905090565b600080fd5b600080fd5b600080fd5b6000601f19601f8301169050919050565b7f4e487b7100000000000000000000000000000000000000000000000000000000600052604160045260246000fd5b620003f582620003aa565b810181811067ffffffffffffffff82111715620004175762000416620003bb565b5b80604052505050565b60006200042c62000391565b90506200043a8282620003ea565b919050565b600067ffffffffffffffff8211156200045d576200045c620003bb565b5b602082029050602081019050919050565b600080fd5b600080fd5b600067ffffffffffffffff821115620004965762000495620003bb565b5b620004a182620003aa565b9050602081019050919050565b60005b83811015620004ce578082015181840152602081019050620004b1565b83811115620004de576000848401525b50505050565b6000620004fb620004f58462000478565b62000420565b9050828152602081018484840111156200051a576200051962000473565b5b62000527848285620004ae565b509392505050565b600082601f830112620005475762000546620003a5565b5b815162000559848260208601620004e4565b91505092915050565b60006200057962000573846200043f565b62000420565b905080838252602082019050602084028301858111156200059f576200059e6200046e565b5b835b81811015620005ed57805167ffffffffffffffff811115620005c857620005c7620003a5565b5b808601620005d789826200052f565b85526020850194505050602081019050620005a1565b5050509392505050565b600082601f8301126200060f576200060e620003a5565b5b81516200062184826020860162000562565b91505092915050565b600080604083850312156200064457620006436200039b565b5b600083015167ffffffffffffffff811115620006655762000664620003a0565b5b6200067385828601620005f7565b925050602083015167ffffffffffffffff811115620006975762000696620003a0565b5b620006a585828601620005f7565b9150509250929050565b7f4e487b7100000000000000000000000000000000000000000000000000000000600052601160045260246000fd5b6000819050919050565b6000620006f582620006de565b91507fffffffffffffffffffffffffffffffffffffffffffffffffffffffffffffffff8214156200072b576200072a620006af565b5b600182019050919050565b600082825260208201905092915050565b7f54686572652073686f756c64206265206174206c6561737420312063616e646960008201527f646174652e000000000000000000000000000000000000000000000000000000602082015250565b6000620007a560258362000736565b9150620007b28262000747565b604082019050919050565b60006020820190508181036000830152620007d88162000796565b9050919050565b7f4e487b7100000000000000000000000000000000000000000000000000000000600052603260045260246000fd5b6200081981620006de565b82525050565b600081519050919050565b600062000837826200081f565b62000843818562000736565b935062000855818560208601620004ae565b6200086081620003aa565b840191505092915050565b60006040820190506200088260008301856200080e565b81810360208301526200089681846200082a565b90509392505050565b7f4e487b7100000000000000000000000000000000000000000000000000000000600052602260045260246000fd5b60006002820490506001821680620008e757607f821691505b60208210811415620008fe57620008fd6200089f565b5b50919050565b611a8a80620009146000396000f3fe608060405234801561001057600080fd5b50600436106101005760003560e01c8063403d131211610097578063704802751161006657806370480275146102795780637284e41614610295578063a3ec138d146102b3578063a4fd6f56146102e357610100565b8063403d13121461021957806347fb94631461024957806359f784681461026557806362d73eb81461026f57610100565b80632b7832b3116100d35780632b7832b31461018d5780632d35a8a2146101ab5780632f22850d146101c95780633477ee2e146101e757610100565b80630121b93f1461010557806306fdde031461012157806314bfd6d01461013f57806322f3e2d41461016f575b600080fd5b61011f600480360381019061011a9190610fc2565b610301565b005b6101296103ad565b6040516101369190611088565b60405180910390f35b61015960048036038101906101549190610fc2565b61043b565b60405161016691906110eb565b60405180910390f35b61017761046e565b6040516101849190611121565b60405180910390f35b610195610481565b6040516101a2919061114b565b60405180910390f35b6101b3610487565b6040516101c0919061114b565b60405180910390f35b6101d161048d565b6040516101de919061114b565b60405180910390f35b61020160048036038101906101fc9190610fc2565b610493565b60405161021093929190611166565b60405180910390f35b610233600480360381019061022e9190610fc2565b610545565b604051610240919061114b565b60405180910390f35b610263600480360381019061025e9190611305565b610569565b005b61026d6106bc565b005b6102776107f2565b005b610293600480360381019061028e9190611374565b6108e2565b005b61029d6109c1565b6040516102aa9190611088565b60405180910390f35b6102cd60048036038101906102c89190611374565b610a4f565b6040516102da9190611121565b60405180910390f35b6102eb610a6f565b6040516102f89190611121565b60405180910390f35b600260019054906101000a900460ff1615610351576040517f08c379a0000000000000000000000000000000000000000000000000000000008152600401610348906113ed565b60405180910390fd5b600260009054906101000a900460ff166103a0576040517f08c379a000000000000000000000000000000000000000000000000000000000815260040161039790611459565b60405180910390fd5b6103aa8133610a82565b50565b600080546103ba906114a8565b80601f01602080910402602001604051908101604052809291908181526020018280546103e6906114a8565b80156104335780601f1061040857610100808354040283529160200191610433565b820191906000526020600020905b81548152906001019060200180831161041657829003601f168201915b505050505081565b60036020528060005260406000206000915054906101000a900473ffffffffffffffffffffffffffffffffffffffff1681565b600260009054906101000a900460ff1681565b60065481565b60055481565b60085481565b60076020528060005260406000206000915090508060000154908060010180546104bc906114a8565b80601f01602080910402602001604051908101604052809291908181526020018280546104e8906114a8565b80156105355780601f1061050a57610100808354040283529160200191610535565b820191906000526020600020905b81548152906001019060200180831161051857829003601f168201915b5050505050908060020154905083565b6009818154811061055557600080fd5b906000526020600020016000915090505481565b600260019054906101000a900460ff16156105b9576040517f08c379a00000000000000000000000000000000000000000000000000000000081526004016105b0906113ed565b60405180910390fd5b600260009054906101000a900460ff16610608576040517f08c379a00000000000000000000000000000000000000000000000000000000081526004016105ff90611459565b60405180910390fd5b6000838260405160200161061d929190611543565b6040516020818303038152906040528051906020012090508173ffffffffffffffffffffffffffffffffffffffff166106568285610c39565b73ffffffffffffffffffffffffffffffffffffffff16146106ac576040517f08c379a00000000000000000000000000000000000000000000000000000000081526004016106a3906115e1565b60405180910390fd5b6106b68483610a82565b50505050565b6000805b60065481101561074d576003600082815260200190815260200160002060009054906101000a900473ffffffffffffffffffffffffffffffffffffffff1673ffffffffffffffffffffffffffffffffffffffff163373ffffffffffffffffffffffffffffffffffffffff16141561073a576001915061074d565b808061074590611630565b9150506106c0565b508061078e576040517f08c379a0000000000000000000000000000000000000000000000000000000008152600401610785906116eb565b60405180910390fd5b6001600260016101000a81548160ff0219169083151502179055506107b1610c4d565b50507f38d8ebbbb4803f034f19b4cf2f19bfb84cc5dea177696c1f80a19357d5602e0460096008546040516107e7929190611819565b60405180910390a150565b6000805b600654811015610883576003600082815260200190815260200160002060009054906101000a900473ffffffffffffffffffffffffffffffffffffffff1673ffffffffffffffffffffffffffffffffffffffff163373ffffffffffffffffffffffffffffffffffffffff1614156108705760019150610883565b808061087b90611630565b9150506107f6565b50806108c4576040517f08c379a00000000000000000000000000000000000000000000000000000000081526004016108bb906116eb565b60405180910390fd5b6001600260006101000a81548160ff02191690831515021790555050565b6000805b600654811015610973576003600082815260200190815260200160002060009054906101000a900473ffffffffffffffffffffffffffffffffffffffff1673ffffffffffffffffffffffffffffffffffffffff163373ffffffffffffffffffffffffffffffffffffffff1614156109605760019150610973565b808061096b90611630565b9150506108e6565b50806109b4576040517f08c379a00000000000000000000000000000000000000000000000000000000081526004016109ab906116eb565b60405180910390fd5b6109bd82610dc1565b5050565b600180546109ce906114a8565b80601f01602080910402602001604051908101604052809291908181526020018280546109fa906114a8565b8015610a475780601f10610a1c57610100808354040283529160200191610a47565b820191906000526020600020905b815481529060010190602001808311610a2a57829003601f168201915b505050505081565b60046020528060005260406000206000915054906101000a900460ff1681565b600260019054906101000a900460ff1681565b8160055481108015610a95575060008110155b610ad4576040517f08c379a0000000000000000000000000000000000000000000000000000000008152600401610acb90611895565b60405180910390fd5b600460008373ffffffffffffffffffffffffffffffffffffffff1673ffffffffffffffffffffffffffffffffffffffff16815260200190815260200160002060009054906101000a900460ff1615610b61576040517f08c379a0000000000000000000000000000000000000000000000000000000008152600401610b5890611901565b60405180910390fd5b6001600460008473ffffffffffffffffffffffffffffffffffffffff1673ffffffffffffffffffffffffffffffffffffffff16815260200190815260200160002060006101000a81548160ff021916908315150217905550600760008481526020019081526020016000206002016000815480929190610be090611630565b91905055507fd3ebd88818d034d26c5d98bcef9c7c45207130238e76e8cf0b3ba00e906851bf836007600086815260200190815260200160002060020154604051610c2c929190611921565b60405180910390a1505050565b6000610c458383610e30565b905092915050565b6000606060005b600554811015610d615760085460076000838152602001908152602001600020600201541115610ced57600760008281526020019081526020016000206002015460088190555060096000610ca99190610f3a565b600960076000838152602001908152602001600020600001549080600181540180825580915050600190039060005260206000200160009091909190915055610d4e565b60085460076000838152602001908152602001600020600201541415610d4d576009600760008381526020019081526020016000206000015490806001815401808255809150506001900390600052602060002001600090919091909150555b5b8080610d5990611630565b915050610c54565b50600854600980805480602002602001604051908101604052809291908181526020018280548015610db257602002820191906000526020600020905b815481526020019060010190808311610d9e575b50505050509050915091509091565b8060036000600654815260200190815260200160002060006101000a81548173ffffffffffffffffffffffffffffffffffffffff021916908373ffffffffffffffffffffffffffffffffffffffff16021790555060066000815480929190610e2890611630565b919050555050565b600080600080610e3f85610f08565b92509250925060006040518060400160405280601c81526020017f19457468657265756d205369676e6564204d6573736167653a0a333200000000815250905060008188604051602001610e949291906119bc565b60405160208183030381529060405280519060200120905060018186868660405160008152602001604052604051610ecf9493929190611a0f565b6020604051602081039080840390855afa158015610ef1573d6000803e3d6000fd5b505050602060405103519550505050505092915050565b60008060006041845114610f1b57600080fd5b6020840151915060408401519050606084015160001a92509193909250565b5080546000825590600052602060002090810190610f589190610f5b565b50565b5b80821115610f74576000816000905550600101610f5c565b5090565b6000604051905090565b600080fd5b600080fd5b6000819050919050565b610f9f81610f8c565b8114610faa57600080fd5b50565b600081359050610fbc81610f96565b92915050565b600060208284031215610fd857610fd7610f82565b5b6000610fe684828501610fad565b91505092915050565b600081519050919050565b600082825260208201905092915050565b60005b8381101561102957808201518184015260208101905061100e565b83811115611038576000848401525b50505050565b6000601f19601f8301169050919050565b600061105a82610fef565b6110648185610ffa565b935061107481856020860161100b565b61107d8161103e565b840191505092915050565b600060208201905081810360008301526110a2818461104f565b905092915050565b600073ffffffffffffffffffffffffffffffffffffffff82169050919050565b60006110d5826110aa565b9050919050565b6110e5816110ca565b82525050565b600060208201905061110060008301846110dc565b92915050565b60008115159050919050565b61111b81611106565b82525050565b60006020820190506111366000830184611112565b92915050565b61114581610f8c565b82525050565b6000602082019050611160600083018461113c565b92915050565b600060608201905061117b600083018661113c565b818103602083015261118d818561104f565b905061119c604083018461113c565b949350505050565b600080fd5b600080fd5b7f4e487b7100000000000000000000000000000000000000000000000000000000600052604160045260246000fd5b6111e68261103e565b810181811067ffffffffffffffff82111715611205576112046111ae565b5b80604052505050565b6000611218610f78565b905061122482826111dd565b919050565b600067ffffffffffffffff821115611244576112436111ae565b5b61124d8261103e565b9050602081019050919050565b82818337600083830152505050565b600061127c61127784611229565b61120e565b905082815260208101848484011115611298576112976111a9565b5b6112a384828561125a565b509392505050565b600082601f8301126112c0576112bf6111a4565b5b81356112d0848260208601611269565b91505092915050565b6112e2816110ca565b81146112ed57600080fd5b50565b6000813590506112ff816112d9565b92915050565b60008060006060848603121561131e5761131d610f82565b5b600061132c86828701610fad565b935050602084013567ffffffffffffffff81111561134d5761134c610f87565b5b611359868287016112ab565b925050604061136a868287016112f0565b9150509250925092565b60006020828403121561138a57611389610f82565b5b6000611398848285016112f0565b91505092915050565b7f456c656374696f6e2068617320656e6465642100000000000000000000000000600082015250565b60006113d7601383610ffa565b91506113e2826113a1565b602082019050919050565b60006020820190508181036000830152611406816113ca565b9050919050565b7f456c656374696f6e20686173206e6f7420626567756e21000000000000000000600082015250565b6000611443601783610ffa565b915061144e8261140d565b602082019050919050565b6000602082019050818103600083015261147281611436565b9050919050565b7f4e487b7100000000000000000000000000000000000000000000000000000000600052602260045260246000fd5b600060028204905060018216806114c057607f821691505b602082108114156114d4576114d3611479565b5b50919050565b6000819050919050565b6114f56114f082610f8c565b6114da565b82525050565b60008160601b9050919050565b6000611513826114fb565b9050919050565b600061152582611508565b9050919050565b61153d611538826110ca565b61151a565b82525050565b600061154f82856114e4565b60208201915061155f828461152c565b6014820191508190509392505050565b7f5369676e617475726520697320696e76616c696420666f7220766f746572206160008201527f6464726573732100000000000000000000000000000000000000000000000000602082015250565b60006115cb602783610ffa565b91506115d68261156f565b604082019050919050565b600060208201905081810360008301526115fa816115be565b9050919050565b7f4e487b7100000000000000000000000000000000000000000000000000000000600052601160045260246000fd5b600061163b82610f8c565b91507fffffffffffffffffffffffffffffffffffffffffffffffffffffffffffffffff82141561166e5761166d611601565b5b600182019050919050565b7f4f6e6c7920616e2061646d696e2063616e20696e766f6b65207468697320667560008201527f6e6374696f6e2e00000000000000000000000000000000000000000000000000602082015250565b60006116d5602783610ffa565b91506116e082611679565b604082019050919050565b60006020820190508181036000830152611704816116c8565b9050919050565b600081549050919050565b600082825260208201905092915050565b60008190508160005260206000209050919050565b61174581610f8c565b82525050565b6000611757838361173c565b60208301905092915050565b60008160001c9050919050565b6000819050919050565b600061178d61178883611763565b611770565b9050919050565b60006117a0825461177a565b9050919050565b6000600182019050919050565b60006117bf8261170b565b6117c98185611716565b93506117d483611727565b8060005b8381101561180c576117e982611794565b6117f3888261174b565b97506117fe836117a7565b9250506001810190506117d8565b5085935050505092915050565b6000604082019050818103600083015261183381856117b4565b9050611842602083018461113c565b9392505050565b7f496e76616c69642063616e64696461746520746f20566f746521000000000000600082015250565b600061187f601a83610ffa565b915061188a82611849565b602082019050919050565b600060208201905081810360008301526118ae81611872565b9050919050565b7f566f7465722068617320616c726561647920566f746564210000000000000000600082015250565b60006118eb601883610ffa565b91506118f6826118b5565b602082019050919050565b6000602082019050818103600083015261191a816118de565b9050919050565b6000604082019050611936600083018561113c565b611943602083018461113c565b9392505050565b600081519050919050565b600081905092915050565b600061196b8261194a565b6119758185611955565b935061198581856020860161100b565b80840191505092915050565b6000819050919050565b6000819050919050565b6119b66119b182611991565b61199b565b82525050565b60006119c88285611960565b91506119d482846119a5565b6020820191508190509392505050565b6119ed81611991565b82525050565b600060ff82169050919050565b611a09816119f3565b82525050565b6000608082019050611a2460008301876119e4565b611a316020830186611a00565b611a3e60408301856119e4565b611a4b60608301846119e4565b9594505050505056fea264697066735822122007a8023a71937499ed84182b1573bc2932bae3cff07fbe29bde2fbdb3219f60f64736f6c634300080b0033",
  "immutableReferences": {},
  "source": "// SPDX-License-Identifier: MIT\npragma solidity ^0.8.11;\n\n// Library that manages signature resolving\nlibrary SigManager {\n    function getSigner(bytes32 _msgHsh, bytes memory _signature)\n        internal\n        pure\n        returns (address _addr)\n    {\n        _addr = recoverSigner(_msgHsh, _signature);\n        return _addr;\n    }\n\n    // signature methods.\n    function splitSignature(bytes memory sig)\n        internal\n        pure\n        returns (\n            uint8 v,\n            bytes32 r,\n            bytes32 s\n        )\n    {\n        require(sig.length == 65);\n        assembly {\n            // first 32 bytes, after the length prefix.\n            r := mload(add(sig, 32))\n            // second 32 bytes.\n            s := mload(add(sig, 64))\n            // final byte (first byte of the next 32 bytes).\n            v := byte(0, mload(add(sig, 96)))\n        }\n        return (v, r, s);\n    }\n\n    function recoverSigner(bytes32 message, bytes memory sig)\n        internal\n        pure\n        returns (address)\n    {\n        (uint8 v, bytes32 r, bytes32 s) = splitSignature(sig);\n        bytes memory prefix = \"\\x19Ethereum Signed Message:\\n32\";\n        bytes32 prefixedHash = keccak256(abi.encodePacked(prefix, message));\n        return ecrecover(prefixedHash, v, r, s);\n    }\n}\n\ncontract SimpleElection {\n    // Election details will be stored in these variables\n    string public name;\n    string public description;\n\n    // The current state of the election can be tracked from these variables\n    bool public isActive = false;\n    bool public isEnded = false;\n\n    // Admin addresses\n    mapping(uint256 => address) public admins;\n\n    // Storing address of those voters who already voted\n    mapping(address => bool) public voters;\n\n    // Number of candidates in standing in the election\n    uint256 public candidatesCount = 0;\n    uint256 public adminCount = 0;\n\n    // Structure of candidate standing in the election\n    struct Candidate {\n        uint256 id;\n        string name;\n        uint256 voteCount;\n    }\n\n    // Storing candidates in a map\n    mapping(uint256 => Candidate) public candidates;\n\n    // Variables that store final election results\n    uint256 public winnerVoteCount;\n\n    ///@notice winnerId is an array to handle ties. In such cases, multiple Candidates would be \"winners\"\n    uint256[] public winnerIds;\n\n    /*\n     *********************   PUBLIC FUNCTIONS   **************************\n     */\n\n    ///@param _nda : An array that contains the name and description of the election.\n    constructor(string[] memory _nda, string[] memory _candidates) {\n        _addAdmin(msg.sender);\n        _setUpElection(_nda, _candidates);\n    }\n\n    // Add a new admin to contract\n    function addAdmin(address _newAdmin) public onlyAdmin {\n        _addAdmin(_newAdmin);\n    }\n\n    // Start the election and begin accepting votes\n    function startElection() public onlyAdmin {\n        isActive = true;\n    }\n\n    // Stop the election and stop receiving votes\n    function endElection() public onlyAdmin {\n        isEnded = true;\n        _calcElectionWinner();\n        emit ElectionEnded(winnerIds, winnerVoteCount);\n    }\n\n    // Cast vote for a candidate\n    function vote(uint256 _candidateId)\n        public\n        electionIsStillOn\n        electionIsActive\n    {\n        _vote(_candidateId, msg.sender);\n    }\n\n    // Allows voters to \"vote\" for a candidate off-chain using signatures. These signatures can then be verified on chain by a trusted 3rd Party\n    function voteWithSig(\n        uint256 _candidateId,\n        bytes memory signature,\n        address _voter\n    ) public electionIsStillOn electionIsActive {\n        // recover address from signature and candidate choice\n        bytes32 msgHsh = keccak256(abi.encodePacked(_candidateId, _voter));\n        require(\n            SigManager.getSigner(msgHsh, signature) == _voter,\n            \"Signature is invalid for voter address!\"\n        );\n        // effect vote\n        _vote(_candidateId, _voter);\n    }\n\n    /*\n     *********************   INTERNAL FUNCTIONS   **************************\n     */\n\n    // Calculate election winner\n    function _calcElectionWinner()\n        internal\n        returns (uint256, uint256[] memory)\n    {\n        for (uint256 i; i < candidatesCount; i++) {\n            ///@notice If we have a larger value, update winnerVoteCount, and reset winnerId\n            if (candidates[i].voteCount > winnerVoteCount) {\n                winnerVoteCount = candidates[i].voteCount;\n                delete winnerIds;\n                winnerIds.push(candidates[i].id);\n            }\n            ///@notice If we encounter another candidate that has the maximum number of votes, we have a tie, and update winnerIds\n            else if (candidates[i].voteCount == winnerVoteCount) {\n                winnerIds.push(candidates[i].id);\n            }\n        }\n\n        return (winnerVoteCount, winnerIds);\n    }\n\n    // Setting of variables and data, during the creation of election contract\n    function _setUpElection(string[] memory _nda, string[] memory _candidates)\n        internal\n    {\n        require(\n            _candidates.length > 0,\n            \"There should be at least 1 candidate.\"\n        );\n        name = _nda[0];\n        description = _nda[1];\n        for (uint256 i = 0; i < _candidates.length; i++) {\n            _addCandidate(_candidates[i]);\n        }\n    }\n\n    // Private function that effects voting on state variables\n    function _vote(uint256 _candidateId, address _voter)\n        internal\n        onlyValidCandidate(_candidateId)\n    {\n        require(!voters[_voter], \"Voter has already Voted!\");\n        voters[_voter] = true;\n        candidates[_candidateId].voteCount++;\n\n        emit VoteForCandidate(_candidateId, candidates[_candidateId].voteCount);\n    }\n\n    // Private function to add an admin\n    function _addAdmin(address _newAdmin) internal {\n        admins[adminCount] = _newAdmin;\n        adminCount++;\n    }\n\n    //Private function to add a candidate\n    function _addCandidate(string memory _name) internal {\n        candidates[candidatesCount] = Candidate({\n            id: candidatesCount,\n            name: _name,\n            voteCount: 0\n        });\n        emit CandidateCreated(candidatesCount, _name);\n        candidatesCount++;\n    }\n\n    /*\n     *********************   MODIFIERS   **************************\n     */\n    modifier onlyAdmin() {\n        bool isAdmin = false;\n        for (uint256 i; i < adminCount; i++) {\n            if (msg.sender == admins[i]) {\n                isAdmin = true;\n                break;\n            }\n        }\n        require(isAdmin, \"Only an admin can invoke this function.\");\n        _;\n    }\n\n    modifier onlyValidCandidate(uint256 _candidateId) {\n        require(\n            _candidateId < candidatesCount && _candidateId >= 0,\n            \"Invalid candidate to Vote!\"\n        );\n        _;\n    }\n\n    modifier electionIsStillOn() {\n        require(!isEnded, \"Election has ended!\");\n        _;\n    }\n\n    modifier electionIsActive() {\n        require(isActive, \"Election has not begun!\");\n        _;\n    }\n\n    /*\n     *********************   EVENTS & ERRORS  **************************\n     */\n    event ElectionEnded(uint256[] _winnerIds, uint256 _winnerVoteCount);\n    event CandidateCreated(uint256 _candidateId, string _candidateName);\n    event VoteForCandidate(uint256 _candidateId, uint256 _candidateVoteCount);\n\n    error ElectionNotStarted();\n    error ElectionHasEnded();\n}\n",
  "sourcePath": "/mnt/c/users/user/documents/coding/blockgames/projects/Voting and Signatures/contracts/SimpleElection.sol",
  "compiler": {
    "name": "solc",
    "version": "0.8.11+commit.d7f03943.Emscripten.clang"
  },
  "schemaVersion": "3.4.5",
  "updatedAt": "2022-04-13T00:44:42.884Z",
  "networkType": "ethereum",
  "devdoc": {
    "kind": "dev",
    "methods": {
      "constructor": {
        "params": {
          "_nda": ": An array that contains the name and description of the election."
        }
      }
    },
    "version": 1
  },
  "userdoc": {
    "kind": "user",
    "methods": {
      "winnerIds(uint256)": {
        "notice": "winnerId is an array to handle ties. In such cases, multiple Candidates would be \"winners\""
      }
    },
    "version": 1
  }
}