{
  "contractName": "TaskMaster",
  "abi": [
    {
      "inputs": [],
      "stateMutability": "nonpayable",
      "type": "constructor"
    },
    {
      "inputs": [],
      "name": "owner",
      "outputs": [
        {
          "internalType": "address",
          "name": "",
          "type": "address"
        }
      ],
      "stateMutability": "view",
      "type": "function",
      "constant": true
    },
    {
      "inputs": [
        {
          "internalType": "address",
          "name": "doer",
          "type": "address"
        },
        {
          "internalType": "uint256",
          "name": "amount",
          "type": "uint256"
        }
      ],
      "name": "rewardDoer",
      "outputs": [],
      "stateMutability": "nonpayable",
      "type": "function"
    },
    {
      "inputs": [
        {
          "internalType": "uint256",
          "name": "randomNo",
          "type": "uint256"
        }
      ],
      "name": "ping",
      "outputs": [
        {
          "internalType": "uint256",
          "name": "",
          "type": "uint256"
        }
      ],
      "stateMutability": "pure",
      "type": "function",
      "constant": true
    },
    {
      "inputs": [
        {
          "internalType": "address",
          "name": "_todoCoinAddress",
          "type": "address"
        }
      ],
      "name": "setTodoCoinAddress",
      "outputs": [],
      "stateMutability": "nonpayable",
      "type": "function"
    }
  ],
  "bytecode": "0x608060405234801561001057600080fd5b5033600160006101000a81548173ffffffffffffffffffffffffffffffffffffffff021916908373ffffffffffffffffffffffffffffffffffffffff16021790555061056b806100616000396000f3fe608060405234801561001057600080fd5b506004361061004c5760003560e01c8063773acdef146100515780638da5cb5b146100815780639659932c1461009f578063d80caa4b146100bb575b600080fd5b61006b600480360381019061006691906102b8565b6100d7565b60405161007891906102f4565b60405180910390f35b6100896100e1565b6040516100969190610350565b60405180910390f35b6100b960048036038101906100b49190610397565b610107565b005b6100d560048036038101906100d091906103c4565b61014a565b005b6000819050919050565b600160009054906101000a900473ffffffffffffffffffffffffffffffffffffffff1681565b806000806101000a81548173ffffffffffffffffffffffffffffffffffffffff021916908373ffffffffffffffffffffffffffffffffffffffff16021790555050565b600160009054906101000a900473ffffffffffffffffffffffffffffffffffffffff1673ffffffffffffffffffffffffffffffffffffffff163373ffffffffffffffffffffffffffffffffffffffff16146101da576040517f08c379a00000000000000000000000000000000000000000000000000000000081526004016101d190610487565b60405180910390fd5b60008054906101000a900473ffffffffffffffffffffffffffffffffffffffff1673ffffffffffffffffffffffffffffffffffffffff1663a9059cbb83836040518363ffffffff1660e01b81526004016102359291906104a7565b6020604051808303816000875af1158015610254573d6000803e3d6000fd5b505050506040513d601f19601f820116820180604052508101906102789190610508565b505050565b600080fd5b6000819050919050565b61029581610282565b81146102a057600080fd5b50565b6000813590506102b28161028c565b92915050565b6000602082840312156102ce576102cd61027d565b5b60006102dc848285016102a3565b91505092915050565b6102ee81610282565b82525050565b600060208201905061030960008301846102e5565b92915050565b600073ffffffffffffffffffffffffffffffffffffffff82169050919050565b600061033a8261030f565b9050919050565b61034a8161032f565b82525050565b60006020820190506103656000830184610341565b92915050565b6103748161032f565b811461037f57600080fd5b50565b6000813590506103918161036b565b92915050565b6000602082840312156103ad576103ac61027d565b5b60006103bb84828501610382565b91505092915050565b600080604083850312156103db576103da61027d565b5b60006103e985828601610382565b92505060206103fa858286016102a3565b9150509250929050565b600082825260208201905092915050565b7f4f6e6c79204f776e65722063616e2063616c6c20746869732066756e6374696f60008201527f6e00000000000000000000000000000000000000000000000000000000000000602082015250565b6000610471602183610404565b915061047c82610415565b604082019050919050565b600060208201905081810360008301526104a081610464565b9050919050565b60006040820190506104bc6000830185610341565b6104c960208301846102e5565b9392505050565b60008115159050919050565b6104e5816104d0565b81146104f057600080fd5b50565b600081519050610502816104dc565b92915050565b60006020828403121561051e5761051d61027d565b5b600061052c848285016104f3565b9150509291505056fea2646970667358221220e8e221c8f529b3046850869d09652964a8d64913022a3ea1494f489c8e5486c464736f6c634300080b0033",
  "immutableReferences": {},
  "source": "// SPDX-License-Identifier: MIT\npragma solidity ^0.8.0;\n\nimport \"./TodoCoin.sol\";\n\ncontract TaskMaster {\n\n  TodoCoin todoCoinInterface;\n\n  address public owner;\n\n  modifier onlyOwner(){\n    require(msg.sender == owner, \"Only Owner can call this function\");\n    _;\n  }\n\n  constructor() {\n    owner = msg.sender;\n  } \n\n  function rewardDoer(address doer, uint amount) public onlyOwner{\n      todoCoinInterface.transfer(doer, amount);\n  }\n\n  function ping(uint randomNo) public pure returns(uint){\n    return randomNo;\n  }\n\n  function setTodoCoinAddress(address _todoCoinAddress) public {\n    todoCoinInterface = TodoCoin(_todoCoinAddress);\n  }\n}\n",
  "sourcePath": "/mnt/c/Users/user/documents/coding/blockgames/todocoin/contracts/TaskMaster.sol",
  "compiler": {
    "name": "solc",
    "version": "0.8.11+commit.d7f03943.Emscripten.clang"
  },
  "schemaVersion": "3.4.5",
  "updatedAt": "2022-03-17T02:52:05.397Z",
  "networkType": "ethereum",
  "devdoc": {
    "kind": "dev",
    "methods": {},
    "version": 1
  },
  "userdoc": {
    "kind": "user",
    "methods": {},
    "version": 1
  }
}