{
  "contractName": "BasicERC20",
  "abi": [
    {
      "inputs": [
        {
          "internalType": "uint256",
          "name": "_totalSupply",
          "type": "uint256"
        },
        {
          "internalType": "uint256",
          "name": "_decimals",
          "type": "uint256"
        },
        {
          "internalType": "string",
          "name": "_name",
          "type": "string"
        },
        {
          "internalType": "string",
          "name": "_symbol",
          "type": "string"
        }
      ],
      "stateMutability": "nonpayable",
      "type": "constructor"
    },
    {
      "anonymous": false,
      "inputs": [
        {
          "indexed": true,
          "internalType": "address",
          "name": "owner",
          "type": "address"
        },
        {
          "indexed": true,
          "internalType": "address",
          "name": "spender",
          "type": "address"
        },
        {
          "indexed": false,
          "internalType": "uint256",
          "name": "value",
          "type": "uint256"
        }
      ],
      "name": "Approval",
      "type": "event"
    },
    {
      "anonymous": false,
      "inputs": [
        {
          "indexed": true,
          "internalType": "address",
          "name": "from",
          "type": "address"
        },
        {
          "indexed": true,
          "internalType": "address",
          "name": "to",
          "type": "address"
        },
        {
          "indexed": false,
          "internalType": "uint256",
          "name": "value",
          "type": "uint256"
        }
      ],
      "name": "Transfer",
      "type": "event"
    },
    {
      "inputs": [],
      "name": "decimals",
      "outputs": [
        {
          "internalType": "uint256",
          "name": "",
          "type": "uint256"
        }
      ],
      "stateMutability": "view",
      "type": "function",
      "constant": true
    },
    {
      "inputs": [],
      "name": "name",
      "outputs": [
        {
          "internalType": "string",
          "name": "",
          "type": "string"
        }
      ],
      "stateMutability": "view",
      "type": "function",
      "constant": true
    },
    {
      "inputs": [],
      "name": "symbol",
      "outputs": [
        {
          "internalType": "string",
          "name": "",
          "type": "string"
        }
      ],
      "stateMutability": "view",
      "type": "function",
      "constant": true
    },
    {
      "inputs": [],
      "name": "totalSupply_",
      "outputs": [
        {
          "internalType": "uint256",
          "name": "",
          "type": "uint256"
        }
      ],
      "stateMutability": "view",
      "type": "function",
      "constant": true
    },
    {
      "inputs": [],
      "name": "totalSupply",
      "outputs": [
        {
          "internalType": "uint256",
          "name": "",
          "type": "uint256"
        }
      ],
      "stateMutability": "view",
      "type": "function",
      "constant": true
    },
    {
      "inputs": [
        {
          "internalType": "address",
          "name": "_who",
          "type": "address"
        }
      ],
      "name": "balanceOf",
      "outputs": [
        {
          "internalType": "uint256",
          "name": "",
          "type": "uint256"
        }
      ],
      "stateMutability": "view",
      "type": "function",
      "constant": true
    },
    {
      "inputs": [
        {
          "internalType": "address",
          "name": "to",
          "type": "address"
        },
        {
          "internalType": "uint256",
          "name": "value",
          "type": "uint256"
        }
      ],
      "name": "transfer",
      "outputs": [
        {
          "internalType": "bool",
          "name": "",
          "type": "bool"
        }
      ],
      "stateMutability": "nonpayable",
      "type": "function"
    },
    {
      "inputs": [
        {
          "internalType": "address",
          "name": "spender",
          "type": "address"
        },
        {
          "internalType": "uint256",
          "name": "value",
          "type": "uint256"
        }
      ],
      "name": "approve",
      "outputs": [
        {
          "internalType": "bool",
          "name": "",
          "type": "bool"
        }
      ],
      "stateMutability": "nonpayable",
      "type": "function"
    },
    {
      "inputs": [
        {
          "internalType": "address",
          "name": "owner",
          "type": "address"
        },
        {
          "internalType": "address",
          "name": "spender",
          "type": "address"
        }
      ],
      "name": "allowance",
      "outputs": [
        {
          "internalType": "uint256",
          "name": "",
          "type": "uint256"
        }
      ],
      "stateMutability": "view",
      "type": "function",
      "constant": true
    },
    {
      "inputs": [
        {
          "internalType": "address",
          "name": "from",
          "type": "address"
        },
        {
          "internalType": "address",
          "name": "to",
          "type": "address"
        },
        {
          "internalType": "uint256",
          "name": "value",
          "type": "uint256"
        }
      ],
      "name": "transferFrom",
      "outputs": [
        {
          "internalType": "bool",
          "name": "",
          "type": "bool"
        }
      ],
      "stateMutability": "nonpayable",
      "type": "function"
    }
  ],
  "bytecode": "0x60806040523480156200001157600080fd5b506040516200163d3803806200163d83398181016040528101906200003791906200034e565b836003819055508260028190555081600490805190602001906200005d929190620000c6565b50806005908051906020019062000076929190620000c6565b506003546000803373ffffffffffffffffffffffffffffffffffffffff1673ffffffffffffffffffffffffffffffffffffffff168152602001908152602001600020819055505050505062000463565b828054620000d4906200042d565b90600052602060002090601f016020900481019282620000f8576000855562000144565b82601f106200011357805160ff191683800117855562000144565b8280016001018555821562000144579182015b828111156200014357825182559160200191906001019062000126565b5b50905062000153919062000157565b5090565b5b808211156200017257600081600090555060010162000158565b5090565b6000604051905090565b600080fd5b600080fd5b6000819050919050565b6200019f816200018a565b8114620001ab57600080fd5b50565b600081519050620001bf8162000194565b92915050565b600080fd5b600080fd5b6000601f19601f8301169050919050565b7f4e487b7100000000000000000000000000000000000000000000000000000000600052604160045260246000fd5b6200021a82620001cf565b810181811067ffffffffffffffff821117156200023c576200023b620001e0565b5b80604052505050565b60006200025162000176565b90506200025f82826200020f565b919050565b600067ffffffffffffffff821115620002825762000281620001e0565b5b6200028d82620001cf565b9050602081019050919050565b60005b83811015620002ba5780820151818401526020810190506200029d565b83811115620002ca576000848401525b50505050565b6000620002e7620002e18462000264565b62000245565b905082815260208101848484011115620003065762000305620001ca565b5b620003138482856200029a565b509392505050565b600082601f830112620003335762000332620001c5565b5b815162000345848260208601620002d0565b91505092915050565b600080600080608085870312156200036b576200036a62000180565b5b60006200037b87828801620001ae565b94505060206200038e87828801620001ae565b935050604085015167ffffffffffffffff811115620003b257620003b162000185565b5b620003c0878288016200031b565b925050606085015167ffffffffffffffff811115620003e457620003e362000185565b5b620003f2878288016200031b565b91505092959194509250565b7f4e487b7100000000000000000000000000000000000000000000000000000000600052602260045260246000fd5b600060028204905060018216806200044657607f821691505b602082108114156200045d576200045c620003fe565b5b50919050565b6111ca80620004736000396000f3fe608060405234801561001057600080fd5b506004361061009e5760003560e01c8063324536eb11610066578063324536eb1461015d57806370a082311461017b57806395d89b41146101ab578063a9059cbb146101c9578063dd62ed3e146101f95761009e565b806306fdde03146100a3578063095ea7b3146100c157806318160ddd146100f157806323b872dd1461010f578063313ce5671461013f575b600080fd5b6100ab610229565b6040516100b89190610cf5565b60405180910390f35b6100db60048036038101906100d69190610db0565b6102b7565b6040516100e89190610e0b565b60405180910390f35b6100f961041b565b6040516101069190610e35565b60405180910390f35b61012960048036038101906101249190610e50565b610425565b6040516101369190610e0b565b60405180910390f35b610147610873565b6040516101549190610e35565b60405180910390f35b610165610879565b6040516101729190610e35565b60405180910390f35b61019560048036038101906101909190610ea3565b61087f565b6040516101a29190610e35565b60405180910390f35b6101b36108c7565b6040516101c09190610cf5565b60405180910390f35b6101e360048036038101906101de9190610db0565b610955565b6040516101f09190610e0b565b60405180910390f35b610213600480360381019061020e9190610ed0565b610bd5565b6040516102209190610e35565b60405180910390f35b6004805461023690610f3f565b80601f016020809104026020016040519081016040528092919081815260200182805461026290610f3f565b80156102af5780601f10610284576101008083540402835291602001916102af565b820191906000526020600020905b81548152906001019060200180831161029257829003601f168201915b505050505081565b600082600073ffffffffffffffffffffffffffffffffffffffff168173ffffffffffffffffffffffffffffffffffffffff16141561032a576040517f08c379a000000000000000000000000000000000000000000000000000000000815260040161032190610fbd565b60405180910390fd5b82600160003373ffffffffffffffffffffffffffffffffffffffff1673ffffffffffffffffffffffffffffffffffffffff16815260200190815260200160002060008673ffffffffffffffffffffffffffffffffffffffff1673ffffffffffffffffffffffffffffffffffffffff168152602001908152602001600020819055508373ffffffffffffffffffffffffffffffffffffffff163373ffffffffffffffffffffffffffffffffffffffff167f8c5be1e5ebec7d5bd14f71427d1e84f3dd0314c0f7b2291e5b200ac8c7c3b925856040516104089190610e35565b60405180910390a3600191505092915050565b6000600354905090565b600083826000808373ffffffffffffffffffffffffffffffffffffffff1673ffffffffffffffffffffffffffffffffffffffff168152602001908152602001600020548111156104aa576040517f08c379a00000000000000000000000000000000000000000000000000000000081526004016104a190611029565b60405180910390fd5b853385600160008473ffffffffffffffffffffffffffffffffffffffff1673ffffffffffffffffffffffffffffffffffffffff16815260200190815260200160002060008373ffffffffffffffffffffffffffffffffffffffff1673ffffffffffffffffffffffffffffffffffffffff1681526020019081526020016000205481111561056c576040517f08c379a0000000000000000000000000000000000000000000000000000000008152600401610563906110bb565b60405180910390fd5b87600073ffffffffffffffffffffffffffffffffffffffff168173ffffffffffffffffffffffffffffffffffffffff1614156105dd576040517f08c379a00000000000000000000000000000000000000000000000000000000081526004016105d490610fbd565b60405180910390fd5b87600160008c73ffffffffffffffffffffffffffffffffffffffff1673ffffffffffffffffffffffffffffffffffffffff16815260200190815260200160002060003373ffffffffffffffffffffffffffffffffffffffff1673ffffffffffffffffffffffffffffffffffffffff16815260200190815260200160002054610665919061110a565b600160008c73ffffffffffffffffffffffffffffffffffffffff1673ffffffffffffffffffffffffffffffffffffffff16815260200190815260200160002060003373ffffffffffffffffffffffffffffffffffffffff1673ffffffffffffffffffffffffffffffffffffffff16815260200190815260200160002081905550876000808c73ffffffffffffffffffffffffffffffffffffffff1673ffffffffffffffffffffffffffffffffffffffff1681526020019081526020016000205461072f919061110a565b6000808c73ffffffffffffffffffffffffffffffffffffffff1673ffffffffffffffffffffffffffffffffffffffff16815260200190815260200160002081905550876000808b73ffffffffffffffffffffffffffffffffffffffff1673ffffffffffffffffffffffffffffffffffffffff168152602001908152602001600020546107bb919061113e565b6000808b73ffffffffffffffffffffffffffffffffffffffff1673ffffffffffffffffffffffffffffffffffffffff168152602001908152602001600020819055508873ffffffffffffffffffffffffffffffffffffffff168a73ffffffffffffffffffffffffffffffffffffffff167fddf252ad1be2c89b69c2b068fc378daa952ba7f163c4a11628f55a4df523b3ef8a60405161085a9190610e35565b60405180910390a3600196505050505050509392505050565b60025481565b60035481565b60008060008373ffffffffffffffffffffffffffffffffffffffff1673ffffffffffffffffffffffffffffffffffffffff168152602001908152602001600020549050919050565b600580546108d490610f3f565b80601f016020809104026020016040519081016040528092919081815260200182805461090090610f3f565b801561094d5780601f106109225761010080835404028352916020019161094d565b820191906000526020600020905b81548152906001019060200180831161093057829003601f168201915b505050505081565b600033826000808373ffffffffffffffffffffffffffffffffffffffff1673ffffffffffffffffffffffffffffffffffffffff168152602001908152602001600020548111156109da576040517f08c379a00000000000000000000000000000000000000000000000000000000081526004016109d190611029565b60405180910390fd5b84600073ffffffffffffffffffffffffffffffffffffffff168173ffffffffffffffffffffffffffffffffffffffff161415610a4b576040517f08c379a0000000000000000000000000000000000000000000000000000000008152600401610a4290610fbd565b60405180910390fd5b846000803373ffffffffffffffffffffffffffffffffffffffff1673ffffffffffffffffffffffffffffffffffffffff16815260200190815260200160002054610a95919061110a565b6000803373ffffffffffffffffffffffffffffffffffffffff1673ffffffffffffffffffffffffffffffffffffffff16815260200190815260200160002081905550846000808873ffffffffffffffffffffffffffffffffffffffff1673ffffffffffffffffffffffffffffffffffffffff16815260200190815260200160002054610b21919061113e565b6000808873ffffffffffffffffffffffffffffffffffffffff1673ffffffffffffffffffffffffffffffffffffffff168152602001908152602001600020819055508573ffffffffffffffffffffffffffffffffffffffff163373ffffffffffffffffffffffffffffffffffffffff167fddf252ad1be2c89b69c2b068fc378daa952ba7f163c4a11628f55a4df523b3ef87604051610bc09190610e35565b60405180910390a36001935050505092915050565b6000600160008473ffffffffffffffffffffffffffffffffffffffff1673ffffffffffffffffffffffffffffffffffffffff16815260200190815260200160002060008373ffffffffffffffffffffffffffffffffffffffff1673ffffffffffffffffffffffffffffffffffffffff16815260200190815260200160002054905092915050565b600081519050919050565b600082825260208201905092915050565b60005b83811015610c96578082015181840152602081019050610c7b565b83811115610ca5576000848401525b50505050565b6000601f19601f8301169050919050565b6000610cc782610c5c565b610cd18185610c67565b9350610ce1818560208601610c78565b610cea81610cab565b840191505092915050565b60006020820190508181036000830152610d0f8184610cbc565b905092915050565b600080fd5b600073ffffffffffffffffffffffffffffffffffffffff82169050919050565b6000610d4782610d1c565b9050919050565b610d5781610d3c565b8114610d6257600080fd5b50565b600081359050610d7481610d4e565b92915050565b6000819050919050565b610d8d81610d7a565b8114610d9857600080fd5b50565b600081359050610daa81610d84565b92915050565b60008060408385031215610dc757610dc6610d17565b5b6000610dd585828601610d65565b9250506020610de685828601610d9b565b9150509250929050565b60008115159050919050565b610e0581610df0565b82525050565b6000602082019050610e206000830184610dfc565b92915050565b610e2f81610d7a565b82525050565b6000602082019050610e4a6000830184610e26565b92915050565b600080600060608486031215610e6957610e68610d17565b5b6000610e7786828701610d65565b9350506020610e8886828701610d65565b9250506040610e9986828701610d9b565b9150509250925092565b600060208284031215610eb957610eb8610d17565b5b6000610ec784828501610d65565b91505092915050565b60008060408385031215610ee757610ee6610d17565b5b6000610ef585828601610d65565b9250506020610f0685828601610d65565b9150509250929050565b7f4e487b7100000000000000000000000000000000000000000000000000000000600052602260045260246000fd5b60006002820490506001821680610f5757607f821691505b60208210811415610f6b57610f6a610f10565b5b50919050565b7f496e76616c696420616464726573730000000000000000000000000000000000600082015250565b6000610fa7600f83610c67565b9150610fb282610f71565b602082019050919050565b60006020820190508181036000830152610fd681610f9a565b9050919050565b7f496e73756666696369656e742042616c616e636520666f722055736572000000600082015250565b6000611013601d83610c67565b915061101e82610fdd565b602082019050919050565b6000602082019050818103600083015261104281611006565b9050919050565b7f496e73756666696369656e7420616c6c6f77616e636520666f7220746869732060008201527f557365722066726f6d206f776e65720000000000000000000000000000000000602082015250565b60006110a5602f83610c67565b91506110b082611049565b604082019050919050565b600060208201905081810360008301526110d481611098565b9050919050565b7f4e487b7100000000000000000000000000000000000000000000000000000000600052601160045260246000fd5b600061111582610d7a565b915061112083610d7a565b925082821015611133576111326110db565b5b828203905092915050565b600061114982610d7a565b915061115483610d7a565b9250827fffffffffffffffffffffffffffffffffffffffffffffffffffffffffffffffff03821115611189576111886110db565b5b82820190509291505056fea264697066735822122051c12b6307782da60eec69117eebb64825da2604aed40c51c9baad9259d662a464736f6c634300080b0033",
  "immutableReferences": {},
  "source": "// SPDX-License-Identifier: MIT\npragma solidity ^0.8.0;\n\ncontract BasicERC20 {\n  \n  event Transfer (address indexed from, address indexed to, uint256 value); \n  event Approval(address indexed owner, address indexed spender, uint256 value);\n\n  mapping(address => uint) balances;\n  mapping(address => mapping(address => uint)) allowed; // {user: { user2 : amount, user3:amount2 ... }}\n\n  uint public decimals;\n  uint public totalSupply_;\n\n  string public name; // Wrapped Bitcoin\n  string public symbol; // WBTC\n\n  modifier sufficientBalance(address _spender, uint _value){\n    require(_value <= balances[_spender] , \"Insufficient Balance for User\");\n    _;\n  }\n\n  modifier sufficientApproval(address _owner, address _spender, uint _value){\n    require(_value <= allowed[_owner][_spender], \"Insufficient allowance for this User from owner\");\n    _;\n  }\n\n  modifier validAddress(address _address){\n    require(_address != address(0), \"Invalid address\");\n    _;\n  }\n\n  constructor(uint _totalSupply, uint _decimals, string memory _name, string memory _symbol){\n      totalSupply_ = _totalSupply;\n      decimals = _decimals;\n      name = _name;\n      symbol = _symbol;\n\n      balances[msg.sender] = totalSupply_;  \n  }\n  \n  function totalSupply() public view virtual returns(uint256){\n    return totalSupply_;\n  }\n\n  function balanceOf(address _who) public view virtual returns(uint256){\n    return balances[_who];\n  }\n\n  function transfer(address to, uint256 value) public virtual sufficientBalance(msg.sender, value) validAddress(to) returns(bool){\n    balances[msg.sender] = balances[msg.sender] - value;\n    balances[to] = balances[to] + value;\n    emit Transfer(msg.sender, to, value);\n    \n    return true;\n  }\n\n  function approve(address spender, uint256 value) public virtual validAddress(spender) returns(bool){\n    allowed[msg.sender][spender] = value;\n    emit Approval(msg.sender, spender, value);\n\n    return true;\n  }\n  \n  function allowance(address owner, address spender) public virtual view returns(uint256){\n      return allowed[owner][spender];\n  }\n\n  function transferFrom(address from, address to, uint256 value) public virtual sufficientBalance(from, value) sufficientApproval(from, msg.sender, value) validAddress(to) returns(bool){\n      allowed[from][msg.sender] = allowed[from][msg.sender] - value; // Reduce your allowance\n      balances[from] = balances[from] - value; // Reduce the allocators balance\n      balances[to] = balances[to] + value; // We increase the end user/address's balance\n      emit Transfer(from, to, value);\n      return true;\n\n  } \n  \n}\n",
  "sourcePath": "/mnt/c/Users/user/documents/coding/blockgames-erc20/contracts/BasicERC20.sol",
  "compiler": {
    "name": "solc",
    "version": "0.8.11+commit.d7f03943.Emscripten.clang"
  },
  "schemaVersion": "3.4.5",
  "updatedAt": "2022-03-12T23:51:46.582Z",
  "networkType": "ethereum",
  "devdoc": {
    "kind": "dev",
    "methods": {},
    "version": 1
  },
  "userdoc": {
    "kind": "user",
    "methods": {},
    "version": 1
  }
}