{
  "contractName": "StakeForRewards",
  "abi": [
    {
      "inputs": [
        {
          "internalType": "uint256",
          "name": "_stakeTime",
          "type": "uint256"
        },
        {
          "internalType": "uint256",
          "name": "_tokenToWeiRate",
          "type": "uint256"
        }
      ],
      "stateMutability": "payable",
      "type": "constructor",
      "payable": true
    },
    {
      "anonymous": false,
      "inputs": [
        {
          "indexed": true,
          "internalType": "address",
          "name": "owner",
          "type": "address"
        },
        {
          "indexed": true,
          "internalType": "address",
          "name": "spender",
          "type": "address"
        },
        {
          "indexed": false,
          "internalType": "uint256",
          "name": "value",
          "type": "uint256"
        }
      ],
      "name": "Approval",
      "type": "event"
    },
    {
      "anonymous": false,
      "inputs": [
        {
          "indexed": true,
          "internalType": "address",
          "name": "_claimer",
          "type": "address"
        },
        {
          "indexed": true,
          "internalType": "uint256",
          "name": "_timestamp",
          "type": "uint256"
        },
        {
          "indexed": false,
          "internalType": "uint256",
          "name": "_amount",
          "type": "uint256"
        }
      ],
      "name": "Claimed",
      "type": "event"
    },
    {
      "anonymous": false,
      "inputs": [
        {
          "indexed": true,
          "internalType": "address",
          "name": "_staker",
          "type": "address"
        },
        {
          "indexed": true,
          "internalType": "uint256",
          "name": "_timestamp",
          "type": "uint256"
        },
        {
          "indexed": false,
          "internalType": "uint256",
          "name": "_amount",
          "type": "uint256"
        }
      ],
      "name": "Staked",
      "type": "event"
    },
    {
      "anonymous": false,
      "inputs": [
        {
          "indexed": true,
          "internalType": "address",
          "name": "from",
          "type": "address"
        },
        {
          "indexed": true,
          "internalType": "address",
          "name": "to",
          "type": "address"
        },
        {
          "indexed": false,
          "internalType": "uint256",
          "name": "value",
          "type": "uint256"
        }
      ],
      "name": "Transfer",
      "type": "event"
    },
    {
      "stateMutability": "payable",
      "type": "fallback",
      "payable": true
    },
    {
      "inputs": [
        {
          "internalType": "address",
          "name": "owner",
          "type": "address"
        },
        {
          "internalType": "address",
          "name": "spender",
          "type": "address"
        }
      ],
      "name": "allowance",
      "outputs": [
        {
          "internalType": "uint256",
          "name": "",
          "type": "uint256"
        }
      ],
      "stateMutability": "view",
      "type": "function",
      "constant": true
    },
    {
      "inputs": [
        {
          "internalType": "address",
          "name": "spender",
          "type": "address"
        },
        {
          "internalType": "uint256",
          "name": "amount",
          "type": "uint256"
        }
      ],
      "name": "approve",
      "outputs": [
        {
          "internalType": "bool",
          "name": "",
          "type": "bool"
        }
      ],
      "stateMutability": "nonpayable",
      "type": "function"
    },
    {
      "inputs": [
        {
          "internalType": "address",
          "name": "account",
          "type": "address"
        }
      ],
      "name": "balanceOf",
      "outputs": [
        {
          "internalType": "uint256",
          "name": "",
          "type": "uint256"
        }
      ],
      "stateMutability": "view",
      "type": "function",
      "constant": true
    },
    {
      "inputs": [
        {
          "internalType": "address",
          "name": "spender",
          "type": "address"
        },
        {
          "internalType": "uint256",
          "name": "subtractedValue",
          "type": "uint256"
        }
      ],
      "name": "decreaseAllowance",
      "outputs": [
        {
          "internalType": "bool",
          "name": "",
          "type": "bool"
        }
      ],
      "stateMutability": "nonpayable",
      "type": "function"
    },
    {
      "inputs": [
        {
          "internalType": "address",
          "name": "spender",
          "type": "address"
        },
        {
          "internalType": "uint256",
          "name": "addedValue",
          "type": "uint256"
        }
      ],
      "name": "increaseAllowance",
      "outputs": [
        {
          "internalType": "bool",
          "name": "",
          "type": "bool"
        }
      ],
      "stateMutability": "nonpayable",
      "type": "function"
    },
    {
      "inputs": [],
      "name": "minStakePeriod",
      "outputs": [
        {
          "internalType": "uint256",
          "name": "",
          "type": "uint256"
        }
      ],
      "stateMutability": "view",
      "type": "function",
      "constant": true
    },
    {
      "inputs": [],
      "name": "name",
      "outputs": [
        {
          "internalType": "string",
          "name": "",
          "type": "string"
        }
      ],
      "stateMutability": "view",
      "type": "function",
      "constant": true
    },
    {
      "inputs": [],
      "name": "owner",
      "outputs": [
        {
          "internalType": "address",
          "name": "",
          "type": "address"
        }
      ],
      "stateMutability": "view",
      "type": "function",
      "constant": true
    },
    {
      "inputs": [],
      "name": "rewardPct",
      "outputs": [
        {
          "internalType": "uint256",
          "name": "",
          "type": "uint256"
        }
      ],
      "stateMutability": "view",
      "type": "function",
      "constant": true
    },
    {
      "inputs": [],
      "name": "symbol",
      "outputs": [
        {
          "internalType": "string",
          "name": "",
          "type": "string"
        }
      ],
      "stateMutability": "view",
      "type": "function",
      "constant": true
    },
    {
      "inputs": [],
      "name": "tokenToWeiRate",
      "outputs": [
        {
          "internalType": "uint256",
          "name": "",
          "type": "uint256"
        }
      ],
      "stateMutability": "view",
      "type": "function",
      "constant": true
    },
    {
      "inputs": [],
      "name": "totalSupply",
      "outputs": [
        {
          "internalType": "uint256",
          "name": "",
          "type": "uint256"
        }
      ],
      "stateMutability": "view",
      "type": "function",
      "constant": true
    },
    {
      "inputs": [
        {
          "internalType": "address",
          "name": "to",
          "type": "address"
        },
        {
          "internalType": "uint256",
          "name": "amount",
          "type": "uint256"
        }
      ],
      "name": "transfer",
      "outputs": [
        {
          "internalType": "bool",
          "name": "",
          "type": "bool"
        }
      ],
      "stateMutability": "nonpayable",
      "type": "function"
    },
    {
      "inputs": [
        {
          "internalType": "address",
          "name": "from",
          "type": "address"
        },
        {
          "internalType": "address",
          "name": "to",
          "type": "address"
        },
        {
          "internalType": "uint256",
          "name": "amount",
          "type": "uint256"
        }
      ],
      "name": "transferFrom",
      "outputs": [
        {
          "internalType": "bool",
          "name": "",
          "type": "bool"
        }
      ],
      "stateMutability": "nonpayable",
      "type": "function"
    },
    {
      "inputs": [],
      "name": "buyToken",
      "outputs": [
        {
          "internalType": "bool",
          "name": "status",
          "type": "bool"
        },
        {
          "internalType": "uint256",
          "name": "tokensBought",
          "type": "uint256"
        }
      ],
      "stateMutability": "payable",
      "type": "function",
      "payable": true
    },
    {
      "inputs": [
        {
          "internalType": "uint256",
          "name": "_amtToStake",
          "type": "uint256"
        }
      ],
      "name": "stakeToken",
      "outputs": [
        {
          "internalType": "bool",
          "name": "",
          "type": "bool"
        },
        {
          "internalType": "uint256",
          "name": "rewardTime",
          "type": "uint256"
        }
      ],
      "stateMutability": "nonpayable",
      "type": "function"
    },
    {
      "inputs": [],
      "name": "claimReward",
      "outputs": [
        {
          "internalType": "bool",
          "name": "",
          "type": "bool"
        }
      ],
      "stateMutability": "nonpayable",
      "type": "function"
    },
    {
      "inputs": [
        {
          "internalType": "uint256",
          "name": "_tokenToWeiRate",
          "type": "uint256"
        }
      ],
      "name": "modifyTokenBuyPrice",
      "outputs": [
        {
          "internalType": "bool",
          "name": "",
          "type": "bool"
        }
      ],
      "stateMutability": "nonpayable",
      "type": "function"
    },
    {
      "inputs": [],
      "name": "decimals",
      "outputs": [
        {
          "internalType": "uint8",
          "name": "_decimals",
          "type": "uint8"
        }
      ],
      "stateMutability": "pure",
      "type": "function",
      "constant": true
    },
    {
      "inputs": [],
      "name": "bigRedButton",
      "outputs": [],
      "stateMutability": "nonpayable",
      "type": "function"
    }
  ],
  "bytecode": "0x608060405260006008556001600a556040516200294b3803806200294b833981810160405281019062000033919062000425565b6040518060400160405280601881526020017f426c6f636b67616d6573204261736963205374616b696e6700000000000000008152506040518060400160405280600381526020017f42425300000000000000000000000000000000000000000000000000000000008152508160039080519060200190620000b792919062000335565b508060049080519060200190620000d092919062000335565b50505033600760006101000a81548173ffffffffffffffffffffffffffffffffffffffff021916908373ffffffffffffffffffffffffffffffffffffffff160217905550816008819055508060098190555062000182600760009054906101000a900473ffffffffffffffffffffffffffffffffffffffff16620001596200018b60201b60201c565b600a620001679190620005fc565b6103e86200017691906200064d565b6200019460201b60201c565b50505062000821565b60006005905090565b6000620001a88383620001b260201b60201c565b6001905092915050565b600073ffffffffffffffffffffffffffffffffffffffff168273ffffffffffffffffffffffffffffffffffffffff16141562000225576040517f08c379a00000000000000000000000000000000000000000000000000000000081526004016200021c906200070f565b60405180910390fd5b62000239600083836200032b60201b60201c565b80600260008282546200024d919062000731565b92505081905550806000808473ffffffffffffffffffffffffffffffffffffffff1673ffffffffffffffffffffffffffffffffffffffff1681526020019081526020016000206000828254620002a4919062000731565b925050819055508173ffffffffffffffffffffffffffffffffffffffff16600073ffffffffffffffffffffffffffffffffffffffff167fddf252ad1be2c89b69c2b068fc378daa952ba7f163c4a11628f55a4df523b3ef836040516200030b91906200079f565b60405180910390a362000327600083836200033060201b60201c565b5050565b505050565b505050565b8280546200034390620007eb565b90600052602060002090601f016020900481019282620003675760008555620003b3565b82601f106200038257805160ff1916838001178555620003b3565b82800160010185558215620003b3579182015b82811115620003b257825182559160200191906001019062000395565b5b509050620003c29190620003c6565b5090565b5b80821115620003e1576000816000905550600101620003c7565b5090565b600080fd5b6000819050919050565b620003ff81620003ea565b81146200040b57600080fd5b50565b6000815190506200041f81620003f4565b92915050565b600080604083850312156200043f576200043e620003e5565b5b60006200044f858286016200040e565b925050602062000462858286016200040e565b9150509250929050565b7f4e487b7100000000000000000000000000000000000000000000000000000000600052601160045260246000fd5b60008160011c9050919050565b6000808291508390505b6001851115620004fa57808604811115620004d257620004d16200046c565b5b6001851615620004e25780820291505b8081029050620004f2856200049b565b9450620004b2565b94509492505050565b600082620005155760019050620005e8565b81620005255760009050620005e8565b81600181146200053e576002811462000549576200057f565b6001915050620005e8565b60ff8411156200055e576200055d6200046c565b5b8360020a9150848211156200057857620005776200046c565b5b50620005e8565b5060208310610133831016604e8410600b8410161715620005b95782820a905083811115620005b357620005b26200046c565b5b620005e8565b620005c88484846001620004a8565b92509050818404811115620005e257620005e16200046c565b5b81810290505b9392505050565b600060ff82169050919050565b60006200060982620003ea565b91506200061683620005ef565b9250620006457fffffffffffffffffffffffffffffffffffffffffffffffffffffffffffffffff848462000503565b905092915050565b60006200065a82620003ea565b91506200066783620003ea565b9250817fffffffffffffffffffffffffffffffffffffffffffffffffffffffffffffffff0483118215151615620006a357620006a26200046c565b5b828202905092915050565b600082825260208201905092915050565b7f45524332303a206d696e7420746f20746865207a65726f206164647265737300600082015250565b6000620006f7601f83620006ae565b91506200070482620006bf565b602082019050919050565b600060208201905081810360008301526200072a81620006e8565b9050919050565b60006200073e82620003ea565b91506200074b83620003ea565b9250827fffffffffffffffffffffffffffffffffffffffffffffffffffffffffffffffff038211156200078357620007826200046c565b5b828201905092915050565b6200079981620003ea565b82525050565b6000602082019050620007b660008301846200078e565b92915050565b7f4e487b7100000000000000000000000000000000000000000000000000000000600052602260045260246000fd5b600060028204905060018216806200080457607f821691505b602082108114156200081b576200081a620007bc565b5b50919050565b61211a80620008316000396000f3fe6080604052600436106101235760003560e01c806395d89b41116100a0578063a9059cbb11610064578063a9059cbb14610410578063b88a802f1461044d578063cda6b84714610478578063d84f2bc6146104b6578063dd62ed3e146104e157610124565b806395d89b41146103335780639bd3f3bc1461035e578063a457c2d714610389578063a4821719146103c6578063a60fa896146103e557610124565b806339509351116100e7578063395093511461023a57806363fba7441461027757806370a082311461028e578063834dc984146102cb5780638da5cb5b1461030857610124565b806306fdde031461013f578063095ea7b31461016a57806318160ddd146101a757806323b872dd146101d2578063313ce5671461020f57610124565b5b600061012f3461051e565b905061013b338261057a565b5050005b34801561014b57600080fd5b50610154610590565b60405161016191906115d8565b60405180910390f35b34801561017657600080fd5b50610191600480360381019061018c9190611693565b610622565b60405161019e91906116ee565b60405180910390f35b3480156101b357600080fd5b506101bc610645565b6040516101c99190611718565b60405180910390f35b3480156101de57600080fd5b506101f960048036038101906101f49190611733565b61064f565b60405161020691906116ee565b60405180910390f35b34801561021b57600080fd5b5061022461067e565b60405161023191906117a2565b60405180910390f35b34801561024657600080fd5b50610261600480360381019061025c9190611693565b610687565b60405161026e91906116ee565b60405180910390f35b34801561028357600080fd5b5061028c610731565b005b34801561029a57600080fd5b506102b560048036038101906102b091906117bd565b6107fc565b6040516102c29190611718565b60405180910390f35b3480156102d757600080fd5b506102f260048036038101906102ed91906117ea565b610844565b6040516102ff91906116ee565b60405180910390f35b34801561031457600080fd5b5061031d6108e6565b60405161032a9190611826565b60405180910390f35b34801561033f57600080fd5b5061034861090c565b60405161035591906115d8565b60405180910390f35b34801561036a57600080fd5b5061037361099e565b6040516103809190611718565b60405180910390f35b34801561039557600080fd5b506103b060048036038101906103ab9190611693565b6109a4565b6040516103bd91906116ee565b60405180910390f35b6103ce610a8e565b6040516103dc929190611841565b60405180910390f35b3480156103f157600080fd5b506103fa610aaf565b6040516104079190611718565b60405180910390f35b34801561041c57600080fd5b5061043760048036038101906104329190611693565b610ab5565b60405161044491906116ee565b60405180910390f35b34801561045957600080fd5b50610462610ad8565b60405161046f91906116ee565b60405180910390f35b34801561048457600080fd5b5061049f600480360381019061049a91906117ea565b610bcf565b6040516104ad929190611841565b60405180910390f35b3480156104c257600080fd5b506104cb610d5d565b6040516104d89190611718565b60405180910390f35b3480156104ed57600080fd5b506105086004803603810190610503919061186a565b610d63565b6040516105159190611718565b60405180910390f35b6000600954821015610565576040517f08c379a000000000000000000000000000000000000000000000000000000000815260040161055c906118f6565b60405180910390fd5b600954826105739190611974565b9050919050565b60006105868383610dea565b6001905092915050565b60606003805461059f906119d4565b80601f01602080910402602001604051908101604052809291908181526020018280546105cb906119d4565b80156106185780601f106105ed57610100808354040283529160200191610618565b820191906000526020600020905b8154815290600101906020018083116105fb57829003601f168201915b5050505050905090565b60008061062d610f4a565b905061063a818585610f52565b600191505092915050565b6000600254905090565b60008061065a610f4a565b905061066785828561111d565b6106728585856111a9565b60019150509392505050565b60006005905090565b600080610692610f4a565b9050610726818585600160008673ffffffffffffffffffffffffffffffffffffffff1673ffffffffffffffffffffffffffffffffffffffff16815260200190815260200160002060008973ffffffffffffffffffffffffffffffffffffffff1673ffffffffffffffffffffffffffffffffffffffff168152602001908152602001600020546107219190611a06565b610f52565b600191505092915050565b600760009054906101000a900473ffffffffffffffffffffffffffffffffffffffff1673ffffffffffffffffffffffffffffffffffffffff163373ffffffffffffffffffffffffffffffffffffffff16146107c1576040517f08c379a00000000000000000000000000000000000000000000000000000000081526004016107b890611ace565b60405180910390fd5b600760009054906101000a900473ffffffffffffffffffffffffffffffffffffffff1673ffffffffffffffffffffffffffffffffffffffff16ff5b60008060008373ffffffffffffffffffffffffffffffffffffffff1673ffffffffffffffffffffffffffffffffffffffff168152602001908152602001600020549050919050565b6000600760009054906101000a900473ffffffffffffffffffffffffffffffffffffffff1673ffffffffffffffffffffffffffffffffffffffff163373ffffffffffffffffffffffffffffffffffffffff16146108d6576040517f08c379a00000000000000000000000000000000000000000000000000000000081526004016108cd90611ace565b60405180910390fd5b8160098190555060019050919050565b600760009054906101000a900473ffffffffffffffffffffffffffffffffffffffff1681565b60606004805461091b906119d4565b80601f0160208091040260200160405190810160405280929190818152602001828054610947906119d4565b80156109945780601f1061096957610100808354040283529160200191610994565b820191906000526020600020905b81548152906001019060200180831161097757829003601f168201915b5050505050905090565b600a5481565b6000806109af610f4a565b90506000600160008373ffffffffffffffffffffffffffffffffffffffff1673ffffffffffffffffffffffffffffffffffffffff16815260200190815260200160002060008673ffffffffffffffffffffffffffffffffffffffff1673ffffffffffffffffffffffffffffffffffffffff16815260200190815260200160002054905083811015610a75576040517f08c379a0000000000000000000000000000000000000000000000000000000008152600401610a6c90611b60565b60405180910390fd5b610a828286868403610f52565b60019250505092915050565b600080610a9a3461051e565b9050610aa6338261057a565b50600191509091565b60095481565b600080610ac0610f4a565b9050610acd8185856111a9565b600191505092915050565b600033600660008273ffffffffffffffffffffffffffffffffffffffff1673ffffffffffffffffffffffffffffffffffffffff16815260200190815260200160002054421015610b5d576040517f08c379a0000000000000000000000000000000000000000000000000000000008152600401610b5490611bf2565b60405180910390fd5b60085442610b6b9190611a06565b600660003373ffffffffffffffffffffffffffffffffffffffff1673ffffffffffffffffffffffffffffffffffffffff168152602001908152602001600020819055506000610bb933611252565b9050610bc5338261057a565b5060019250505090565b6000803383600560008373ffffffffffffffffffffffffffffffffffffffff1673ffffffffffffffffffffffffffffffffffffffff16815260200190815260200160002054610c1d836107fc565b610c279190611c12565b811115610c69576040517f08c379a0000000000000000000000000000000000000000000000000000000008152600401610c6090611cb8565b60405180910390fd5b60085442610c779190611a06565b600660003373ffffffffffffffffffffffffffffffffffffffff1673ffffffffffffffffffffffffffffffffffffffff1681526020019081526020016000208190555084600560003373ffffffffffffffffffffffffffffffffffffffff1673ffffffffffffffffffffffffffffffffffffffff1681526020019081526020016000206000828254610d099190611a06565b92505081905550600660003373ffffffffffffffffffffffffffffffffffffffff1673ffffffffffffffffffffffffffffffffffffffff168152602001908152602001600020549250600193505050915091565b60085481565b6000600160008473ffffffffffffffffffffffffffffffffffffffff1673ffffffffffffffffffffffffffffffffffffffff16815260200190815260200160002060008373ffffffffffffffffffffffffffffffffffffffff1673ffffffffffffffffffffffffffffffffffffffff16815260200190815260200160002054905092915050565b600073ffffffffffffffffffffffffffffffffffffffff168273ffffffffffffffffffffffffffffffffffffffff161415610e5a576040517f08c379a0000000000000000000000000000000000000000000000000000000008152600401610e5190611d24565b60405180910390fd5b610e66600083836112b4565b8060026000828254610e789190611a06565b92505081905550806000808473ffffffffffffffffffffffffffffffffffffffff1673ffffffffffffffffffffffffffffffffffffffff1681526020019081526020016000206000828254610ecd9190611a06565b925050819055508173ffffffffffffffffffffffffffffffffffffffff16600073ffffffffffffffffffffffffffffffffffffffff167fddf252ad1be2c89b69c2b068fc378daa952ba7f163c4a11628f55a4df523b3ef83604051610f329190611718565b60405180910390a3610f46600083836112b9565b5050565b600033905090565b600073ffffffffffffffffffffffffffffffffffffffff168373ffffffffffffffffffffffffffffffffffffffff161415610fc2576040517f08c379a0000000000000000000000000000000000000000000000000000000008152600401610fb990611db6565b60405180910390fd5b600073ffffffffffffffffffffffffffffffffffffffff168273ffffffffffffffffffffffffffffffffffffffff161415611032576040517f08c379a000000000000000000000000000000000000000000000000000000000815260040161102990611e48565b60405180910390fd5b80600160008573ffffffffffffffffffffffffffffffffffffffff1673ffffffffffffffffffffffffffffffffffffffff16815260200190815260200160002060008473ffffffffffffffffffffffffffffffffffffffff1673ffffffffffffffffffffffffffffffffffffffff168152602001908152602001600020819055508173ffffffffffffffffffffffffffffffffffffffff168373ffffffffffffffffffffffffffffffffffffffff167f8c5be1e5ebec7d5bd14f71427d1e84f3dd0314c0f7b2291e5b200ac8c7c3b925836040516111109190611718565b60405180910390a3505050565b60006111298484610d63565b90507fffffffffffffffffffffffffffffffffffffffffffffffffffffffffffffffff81146111a35781811015611195576040517f08c379a000000000000000000000000000000000000000000000000000000000815260040161118c90611eb4565b60405180910390fd5b6111a28484848403610f52565b5b50505050565b8281600560008373ffffffffffffffffffffffffffffffffffffffff1673ffffffffffffffffffffffffffffffffffffffff168152602001908152602001600020546111f4836107fc565b6111fe9190611c12565b811115611240576040517f08c379a000000000000000000000000000000000000000000000000000000000815260040161123790611cb8565b60405180910390fd5b61124b8585856112be565b5050505050565b60006064600a54600560008573ffffffffffffffffffffffffffffffffffffffff1673ffffffffffffffffffffffffffffffffffffffff168152602001908152602001600020546112a39190611ed4565b6112ad9190611974565b9050919050565b505050565b505050565b600073ffffffffffffffffffffffffffffffffffffffff168373ffffffffffffffffffffffffffffffffffffffff16141561132e576040517f08c379a000000000000000000000000000000000000000000000000000000000815260040161132590611fa0565b60405180910390fd5b600073ffffffffffffffffffffffffffffffffffffffff168273ffffffffffffffffffffffffffffffffffffffff16141561139e576040517f08c379a000000000000000000000000000000000000000000000000000000000815260040161139590612032565b60405180910390fd5b6113a98383836112b4565b60008060008573ffffffffffffffffffffffffffffffffffffffff1673ffffffffffffffffffffffffffffffffffffffff1681526020019081526020016000205490508181101561142f576040517f08c379a0000000000000000000000000000000000000000000000000000000008152600401611426906120c4565b60405180910390fd5b8181036000808673ffffffffffffffffffffffffffffffffffffffff1673ffffffffffffffffffffffffffffffffffffffff16815260200190815260200160002081905550816000808573ffffffffffffffffffffffffffffffffffffffff1673ffffffffffffffffffffffffffffffffffffffff16815260200190815260200160002060008282546114c29190611a06565b925050819055508273ffffffffffffffffffffffffffffffffffffffff168473ffffffffffffffffffffffffffffffffffffffff167fddf252ad1be2c89b69c2b068fc378daa952ba7f163c4a11628f55a4df523b3ef846040516115269190611718565b60405180910390a36115398484846112b9565b50505050565b600081519050919050565b600082825260208201905092915050565b60005b8381101561157957808201518184015260208101905061155e565b83811115611588576000848401525b50505050565b6000601f19601f8301169050919050565b60006115aa8261153f565b6115b4818561154a565b93506115c481856020860161155b565b6115cd8161158e565b840191505092915050565b600060208201905081810360008301526115f2818461159f565b905092915050565b600080fd5b600073ffffffffffffffffffffffffffffffffffffffff82169050919050565b600061162a826115ff565b9050919050565b61163a8161161f565b811461164557600080fd5b50565b60008135905061165781611631565b92915050565b6000819050919050565b6116708161165d565b811461167b57600080fd5b50565b60008135905061168d81611667565b92915050565b600080604083850312156116aa576116a96115fa565b5b60006116b885828601611648565b92505060206116c98582860161167e565b9150509250929050565b60008115159050919050565b6116e8816116d3565b82525050565b600060208201905061170360008301846116df565b92915050565b6117128161165d565b82525050565b600060208201905061172d6000830184611709565b92915050565b60008060006060848603121561174c5761174b6115fa565b5b600061175a86828701611648565b935050602061176b86828701611648565b925050604061177c8682870161167e565b9150509250925092565b600060ff82169050919050565b61179c81611786565b82525050565b60006020820190506117b76000830184611793565b92915050565b6000602082840312156117d3576117d26115fa565b5b60006117e184828501611648565b91505092915050565b600060208284031215611800576117ff6115fa565b5b600061180e8482850161167e565b91505092915050565b6118208161161f565b82525050565b600060208201905061183b6000830184611817565b92915050565b600060408201905061185660008301856116df565b6118636020830184611709565b9392505050565b60008060408385031215611881576118806115fa565b5b600061188f85828601611648565b92505060206118a085828601611648565b9150509250929050565b7f496e73756666696369656e742045544820746f2062757920746f6b656e730000600082015250565b60006118e0601e8361154a565b91506118eb826118aa565b602082019050919050565b6000602082019050818103600083015261190f816118d3565b9050919050565b7f4e487b7100000000000000000000000000000000000000000000000000000000600052601260045260246000fd5b7f4e487b7100000000000000000000000000000000000000000000000000000000600052601160045260246000fd5b600061197f8261165d565b915061198a8361165d565b92508261199a57611999611916565b5b828204905092915050565b7f4e487b7100000000000000000000000000000000000000000000000000000000600052602260045260246000fd5b600060028204905060018216806119ec57607f821691505b60208210811415611a00576119ff6119a5565b5b50919050565b6000611a118261165d565b9150611a1c8361165d565b9250827fffffffffffffffffffffffffffffffffffffffffffffffffffffffffffffffff03821115611a5157611a50611945565b5b828201905092915050565b7f4f6e6c79204f776e65722063616e2063616c6c20746869732066756e6374696f60008201527f6e00000000000000000000000000000000000000000000000000000000000000602082015250565b6000611ab860218361154a565b9150611ac382611a5c565b604082019050919050565b60006020820190508181036000830152611ae781611aab565b9050919050565b7f45524332303a2064656372656173656420616c6c6f77616e63652062656c6f7760008201527f207a65726f000000000000000000000000000000000000000000000000000000602082015250565b6000611b4a60258361154a565b9150611b5582611aee565b604082019050919050565b60006020820190508181036000830152611b7981611b3d565b9050919050565b7f5265717569726564206461746520666f7220636c61696d696e6720612072657760008201527f61726420686173206e6f74206265656e20726561636865640000000000000000602082015250565b6000611bdc60388361154a565b9150611be782611b80565b604082019050919050565b60006020820190508181036000830152611c0b81611bcf565b9050919050565b6000611c1d8261165d565b9150611c288361165d565b925082821015611c3b57611c3a611945565b5b828203905092915050565b7f496e73756666696369656e74206163636f756e742f746f6b656e2042616c616e60008201527f6365000000000000000000000000000000000000000000000000000000000000602082015250565b6000611ca260228361154a565b9150611cad82611c46565b604082019050919050565b60006020820190508181036000830152611cd181611c95565b9050919050565b7f45524332303a206d696e7420746f20746865207a65726f206164647265737300600082015250565b6000611d0e601f8361154a565b9150611d1982611cd8565b602082019050919050565b60006020820190508181036000830152611d3d81611d01565b9050919050565b7f45524332303a20617070726f76652066726f6d20746865207a65726f2061646460008201527f7265737300000000000000000000000000000000000000000000000000000000602082015250565b6000611da060248361154a565b9150611dab82611d44565b604082019050919050565b60006020820190508181036000830152611dcf81611d93565b9050919050565b7f45524332303a20617070726f766520746f20746865207a65726f20616464726560008201527f7373000000000000000000000000000000000000000000000000000000000000602082015250565b6000611e3260228361154a565b9150611e3d82611dd6565b604082019050919050565b60006020820190508181036000830152611e6181611e25565b9050919050565b7f45524332303a20696e73756666696369656e7420616c6c6f77616e6365000000600082015250565b6000611e9e601d8361154a565b9150611ea982611e68565b602082019050919050565b60006020820190508181036000830152611ecd81611e91565b9050919050565b6000611edf8261165d565b9150611eea8361165d565b9250817fffffffffffffffffffffffffffffffffffffffffffffffffffffffffffffffff0483118215151615611f2357611f22611945565b5b828202905092915050565b7f45524332303a207472616e736665722066726f6d20746865207a65726f20616460008201527f6472657373000000000000000000000000000000000000000000000000000000602082015250565b6000611f8a60258361154a565b9150611f9582611f2e565b604082019050919050565b60006020820190508181036000830152611fb981611f7d565b9050919050565b7f45524332303a207472616e7366657220746f20746865207a65726f206164647260008201527f6573730000000000000000000000000000000000000000000000000000000000602082015250565b600061201c60238361154a565b915061202782611fc0565b604082019050919050565b6000602082019050818103600083015261204b8161200f565b9050919050565b7f45524332303a207472616e7366657220616d6f756e742065786365656473206260008201527f616c616e63650000000000000000000000000000000000000000000000000000602082015250565b60006120ae60268361154a565b91506120b982612052565b604082019050919050565b600060208201905081810360008301526120dd816120a1565b905091905056fea2646970667358221220e9ba155513fec48357473f63060c38b4bbd51f17817a596605d0e375310c303964736f6c634300080b0033",
  "immutableReferences": {},
  "source": "// SPDX-License-Identifier: GPL-3.0\n\npragma solidity >=0.7.0 <0.9.0;\n\nimport \"@openzeppelin/contracts/token/ERC20/ERC20.sol\";\n\n/// @title Basic Staking and Reward Contract\n/// @author Tobe:) \n/// @notice Stake some tokens, and claim a reward weekly\ncontract StakeForRewards is ERC20{\n\n    event Staked(address indexed _staker, uint indexed _timestamp, uint _amount);\n    event Claimed(address indexed _claimer, uint indexed _timestamp, uint _amount);\n\n    /*\n    The following variables have been defined OpenZeppelin's Implementation of the ERC20 Standard:\n    \n    mapping(address => uint256) private _balances;\n    mapping(address => mapping(address => uint256)) private _allowances;\n    uint256 private _totalSupply;\n    string private _name;\n    string private _symbol;\n    */\n\n    mapping (address=>uint) private _staked;\n    mapping (address=>uint) private _rewardDueDate;\n    \n    address public owner;\n\n    uint public minStakePeriod = 0 days;\n    uint public tokenToWeiRate; // 1 / 10000000000 \n\n    uint public rewardPct = 1;\n\n    // MODIFIERS\n    modifier onlyOwner(){\n        require(msg.sender == owner, \"Only Owner can call this function\");\n        _;\n    }\n    modifier hasSufficientBalance(address _addr,uint _amount){\n        require(_amount <= (balanceOf(_addr) - _staked[_addr]), \"Insufficient account/token Balance\");\n        _;\n    }\n\n    modifier rewardIsDue(address _addr){\n        require(block.timestamp >= _rewardDueDate[_addr], \"Required date for claiming a reward has not been reached\");\n        _;\n    }\n\n    // STANDARD FUNCTIONS\n    constructor(uint _stakeTime, uint _tokenToWeiRate) ERC20(\"Blockgames Basic Staking\", \"BBS\") payable{\n        owner = msg.sender;\n        minStakePeriod = _stakeTime;\n        tokenToWeiRate = _tokenToWeiRate ;\n        safeMint(owner, 1000 * (10 ** decimals()));\n    }\n\n    fallback() external payable {\n        uint tokenAmount = _calcTokensBought(msg.value);\n        safeMint(msg.sender, tokenAmount);\n    }\n\n    // PUBLIC FUNCTIONS\n    function buyToken() public payable returns(bool status, uint tokensBought){\n        tokensBought = _calcTokensBought(msg.value);\n        safeMint(msg.sender, tokensBought);\n        return (true, tokensBought);\n    }\n\n    function stakeToken(uint _amtToStake) public hasSufficientBalance(msg.sender, _amtToStake) returns(bool, uint rewardTime){\n        _rewardDueDate[msg.sender] = block.timestamp + minStakePeriod;\n        _staked[msg.sender] += _amtToStake;\n        \n        rewardTime = _rewardDueDate[msg.sender];\n        return (true, rewardTime);\n    }\n\n    function claimReward() rewardIsDue(msg.sender) public returns(bool)\n    {\n        _rewardDueDate[msg.sender] = block.timestamp + minStakePeriod;\n        uint reward = _calcReward(msg.sender);\n        safeMint(msg.sender, reward);\n        return true;\n    }\n\n    function modifyTokenBuyPrice(uint _tokenToWeiRate) public onlyOwner returns(bool){\n        tokenToWeiRate = _tokenToWeiRate;\n        return true;\n    }\n\n    // INTERNAL UTILITY FUNCTIONS\n    function safeMint(address _receiver, uint _amount) internal returns(bool){\n        _mint(_receiver, _amount);\n        return true;\n    }\n\n    function _calcTokensBought(uint _msgValue) internal view returns(uint tokenAmount){\n        require(_msgValue >= tokenToWeiRate, \"Insufficient ETH to buy tokens\");\n        tokenAmount = _msgValue / tokenToWeiRate;\n        return tokenAmount;\n    }\n\n    function _calcReward(address _addr) internal view returns(uint rewardAmount){\n        rewardAmount = (_staked[_addr] * rewardPct)/100;\n        return rewardAmount;\n    }\n\n    // OPENZEPPELIN OVERRIDES\n    function decimals() public override pure returns(uint8 _decimals){\n        _decimals = 5;\n        return _decimals;\n    }\n\n    function _transfer(\n        address from,\n        address to,\n        uint256 amount\n      ) \n      internal \n      override \n      hasSufficientBalance(from, amount)\n    {\n        super._transfer(from, to, amount);\n    }   \n\n    \n    // DESTROY THE SMART CONTRACT\n    function bigRedButton() public onlyOwner{\n        selfdestruct(payable(owner));\n    }\n}\n",
  "sourcePath": "/mnt/c/Users/user/documents/coding/blockgames/projects/Working With Time In Solidity/contracts/BasicStaking.sol",
  "compiler": {
    "name": "solc",
    "version": "0.8.11+commit.d7f03943.Emscripten.clang"
  },
  "schemaVersion": "3.4.5",
  "updatedAt": "2022-04-03T09:44:19.041Z",
  "networkType": "ethereum",
  "devdoc": {
    "author": "Tobe:) ",
    "kind": "dev",
    "methods": {
      "allowance(address,address)": {
        "details": "See {IERC20-allowance}."
      },
      "approve(address,uint256)": {
        "details": "See {IERC20-approve}. NOTE: If `amount` is the maximum `uint256`, the allowance is not updated on `transferFrom`. This is semantically equivalent to an infinite approval. Requirements: - `spender` cannot be the zero address."
      },
      "balanceOf(address)": {
        "details": "See {IERC20-balanceOf}."
      },
      "decimals()": {
        "details": "Returns the number of decimals used to get its user representation. For example, if `decimals` equals `2`, a balance of `505` tokens should be displayed to a user as `5.05` (`505 / 10 ** 2`). Tokens usually opt for a value of 18, imitating the relationship between Ether and Wei. This is the value {ERC20} uses, unless this function is overridden; NOTE: This information is only used for _display_ purposes: it in no way affects any of the arithmetic of the contract, including {IERC20-balanceOf} and {IERC20-transfer}."
      },
      "decreaseAllowance(address,uint256)": {
        "details": "Atomically decreases the allowance granted to `spender` by the caller. This is an alternative to {approve} that can be used as a mitigation for problems described in {IERC20-approve}. Emits an {Approval} event indicating the updated allowance. Requirements: - `spender` cannot be the zero address. - `spender` must have allowance for the caller of at least `subtractedValue`."
      },
      "increaseAllowance(address,uint256)": {
        "details": "Atomically increases the allowance granted to `spender` by the caller. This is an alternative to {approve} that can be used as a mitigation for problems described in {IERC20-approve}. Emits an {Approval} event indicating the updated allowance. Requirements: - `spender` cannot be the zero address."
      },
      "name()": {
        "details": "Returns the name of the token."
      },
      "symbol()": {
        "details": "Returns the symbol of the token, usually a shorter version of the name."
      },
      "totalSupply()": {
        "details": "See {IERC20-totalSupply}."
      },
      "transfer(address,uint256)": {
        "details": "See {IERC20-transfer}. Requirements: - `to` cannot be the zero address. - the caller must have a balance of at least `amount`."
      },
      "transferFrom(address,address,uint256)": {
        "details": "See {IERC20-transferFrom}. Emits an {Approval} event indicating the updated allowance. This is not required by the EIP. See the note at the beginning of {ERC20}. NOTE: Does not update the allowance if the current allowance is the maximum `uint256`. Requirements: - `from` and `to` cannot be the zero address. - `from` must have a balance of at least `amount`. - the caller must have allowance for ``from``'s tokens of at least `amount`."
      }
    },
    "title": "Basic Staking and Reward Contract",
    "version": 1
  },
  "userdoc": {
    "kind": "user",
    "methods": {},
    "notice": "Stake some tokens, and claim a reward weekly",
    "version": 1
  }
}