{
  "contractName": "TimedSavings",
  "abi": [
    {
      "inputs": [
        {
          "internalType": "uint256",
          "name": "noDays",
          "type": "uint256"
        }
      ],
      "stateMutability": "payable",
      "type": "constructor",
      "payable": true
    },
    {
      "anonymous": false,
      "inputs": [
        {
          "indexed": true,
          "internalType": "uint256",
          "name": "_timestamp",
          "type": "uint256"
        },
        {
          "indexed": false,
          "internalType": "uint256",
          "name": "_amount",
          "type": "uint256"
        }
      ],
      "name": "Deposit",
      "type": "event"
    },
    {
      "anonymous": false,
      "inputs": [
        {
          "indexed": true,
          "internalType": "uint256",
          "name": "_timestamp",
          "type": "uint256"
        },
        {
          "indexed": false,
          "internalType": "uint256",
          "name": "_amount",
          "type": "uint256"
        }
      ],
      "name": "Withdrawal",
      "type": "event"
    },
    {
      "stateMutability": "payable",
      "type": "fallback",
      "payable": true
    },
    {
      "inputs": [],
      "name": "owner",
      "outputs": [
        {
          "internalType": "address",
          "name": "",
          "type": "address"
        }
      ],
      "stateMutability": "view",
      "type": "function",
      "constant": true
    },
    {
      "inputs": [],
      "name": "withdrawalDate",
      "outputs": [
        {
          "internalType": "uint256",
          "name": "",
          "type": "uint256"
        }
      ],
      "stateMutability": "view",
      "type": "function",
      "constant": true
    },
    {
      "inputs": [],
      "name": "depositAmount",
      "outputs": [
        {
          "internalType": "bool",
          "name": "",
          "type": "bool"
        }
      ],
      "stateMutability": "payable",
      "type": "function",
      "payable": true
    },
    {
      "inputs": [
        {
          "internalType": "uint256",
          "name": "amount",
          "type": "uint256"
        }
      ],
      "name": "withdrawAmount",
      "outputs": [
        {
          "internalType": "bool",
          "name": "sent",
          "type": "bool"
        },
        {
          "internalType": "bytes",
          "name": "data",
          "type": "bytes"
        }
      ],
      "stateMutability": "nonpayable",
      "type": "function"
    },
    {
      "inputs": [],
      "name": "closeAccount",
      "outputs": [],
      "stateMutability": "nonpayable",
      "type": "function"
    },
    {
      "inputs": [],
      "name": "balance",
      "outputs": [
        {
          "internalType": "uint256",
          "name": "_balance",
          "type": "uint256"
        }
      ],
      "stateMutability": "view",
      "type": "function",
      "constant": true
    }
  ],
  "bytecode": "0x608060405260405162000bcc38038062000bcc8339818101604052810190620000299190620000d4565b62015180816200003a919062000135565b4262000047919062000196565b600181905550336000806101000a81548173ffffffffffffffffffffffffffffffffffffffff021916908373ffffffffffffffffffffffffffffffffffffffff16021790555050620001f3565b600080fd5b6000819050919050565b620000ae8162000099565b8114620000ba57600080fd5b50565b600081519050620000ce81620000a3565b92915050565b600060208284031215620000ed57620000ec62000094565b5b6000620000fd84828501620000bd565b91505092915050565b7f4e487b7100000000000000000000000000000000000000000000000000000000600052601160045260246000fd5b6000620001428262000099565b91506200014f8362000099565b9250817fffffffffffffffffffffffffffffffffffffffffffffffffffffffffffffffff04831182151516156200018b576200018a62000106565b5b828202905092915050565b6000620001a38262000099565b9150620001b08362000099565b9250827fffffffffffffffffffffffffffffffffffffffffffffffffffffffffffffffff03821115620001e857620001e762000106565b5b828201905092915050565b6109c980620002036000396000f3fe6080604052600436106100595760003560e01c80630562b9f7146100ec578063419759f51461012a5780636dd22fc6146101485780638261051f1461015f5780638da5cb5b1461018a578063b69ef8a8146101b55761005a565b5b60008054906101000a900473ffffffffffffffffffffffffffffffffffffffff1673ffffffffffffffffffffffffffffffffffffffff163373ffffffffffffffffffffffffffffffffffffffff16146100b257600080fd5b427fa3af609bf46297028ce551832669030f9effef2b02606d02cbbcc40fe6b47c55346040516100e2919061056c565b60405180910390a2005b3480156100f857600080fd5b50610113600480360381019061010e91906105b8565b6101e0565b604051610121929190610699565b60405180910390f35b610132610344565b60405161013f91906106c9565b60405180910390f35b34801561015457600080fd5b5061015d610414565b005b34801561016b57600080fd5b50610174610521565b604051610181919061056c565b60405180910390f35b34801561019657600080fd5b5061019f610527565b6040516101ac9190610725565b60405180910390f35b3480156101c157600080fd5b506101ca61054b565b6040516101d7919061056c565b60405180910390f35b600060608247811115610228576040517f08c379a000000000000000000000000000000000000000000000000000000000815260040161021f9061079d565b60405180910390fd5b6001548042101561026e576040517f08c379a00000000000000000000000000000000000000000000000000000000081526004016102659061082f565b60405180910390fd5b60008054906101000a900473ffffffffffffffffffffffffffffffffffffffff1673ffffffffffffffffffffffffffffffffffffffff16856040516102b290610880565b60006040518083038185875af1925050503d80600081146102ef576040519150601f19603f3d011682016040523d82523d6000602084013e6102f4565b606091505b5080945081955050508361033d576040517f08c379a0000000000000000000000000000000000000000000000000000000008152600401610334906108e1565b60405180910390fd5b5050915091565b60008060009054906101000a900473ffffffffffffffffffffffffffffffffffffffff1673ffffffffffffffffffffffffffffffffffffffff163373ffffffffffffffffffffffffffffffffffffffff16146103d5576040517f08c379a00000000000000000000000000000000000000000000000000000000081526004016103cc90610973565b60405180910390fd5b427fa3af609bf46297028ce551832669030f9effef2b02606d02cbbcc40fe6b47c5534604051610405919061056c565b60405180910390a26001905090565b60008054906101000a900473ffffffffffffffffffffffffffffffffffffffff1673ffffffffffffffffffffffffffffffffffffffff163373ffffffffffffffffffffffffffffffffffffffff16146104a2576040517f08c379a000000000000000000000000000000000000000000000000000000000815260040161049990610973565b60405180910390fd5b600154804210156104e8576040517f08c379a00000000000000000000000000000000000000000000000000000000081526004016104df9061082f565b60405180910390fd5b60008054906101000a900473ffffffffffffffffffffffffffffffffffffffff1673ffffffffffffffffffffffffffffffffffffffff16ff5b60015481565b60008054906101000a900473ffffffffffffffffffffffffffffffffffffffff1681565b600047905090565b6000819050919050565b61056681610553565b82525050565b6000602082019050610581600083018461055d565b92915050565b600080fd5b61059581610553565b81146105a057600080fd5b50565b6000813590506105b28161058c565b92915050565b6000602082840312156105ce576105cd610587565b5b60006105dc848285016105a3565b91505092915050565b60008115159050919050565b6105fa816105e5565b82525050565b600081519050919050565b600082825260208201905092915050565b60005b8381101561063a57808201518184015260208101905061061f565b83811115610649576000848401525b50505050565b6000601f19601f8301169050919050565b600061066b82610600565b610675818561060b565b935061068581856020860161061c565b61068e8161064f565b840191505092915050565b60006040820190506106ae60008301856105f1565b81810360208301526106c08184610660565b90509392505050565b60006020820190506106de60008301846105f1565b92915050565b600073ffffffffffffffffffffffffffffffffffffffff82169050919050565b600061070f826106e4565b9050919050565b61071f81610704565b82525050565b600060208201905061073a6000830184610716565b92915050565b600082825260208201905092915050565b7f496e73756666696369656e7420436f6e74726163742042616c616e6365000000600082015250565b6000610787601d83610740565b915061079282610751565b602082019050919050565b600060208201905081810360008301526107b68161077a565b9050919050565b7f5265717569726564206461746520686173206e6f74206265656e20726561636860008201527f6564000000000000000000000000000000000000000000000000000000000000602082015250565b6000610819602283610740565b9150610824826107bd565b604082019050919050565b600060208201905081810360008301526108488161080c565b9050919050565b600081905092915050565b50565b600061086a60008361084f565b91506108758261085a565b600082019050919050565b600061088b8261085d565b9150819050919050565b7f4661696c656420746f2073656e64204574686572000000000000000000000000600082015250565b60006108cb601483610740565b91506108d682610895565b602082019050919050565b600060208201905081810360008301526108fa816108be565b9050919050565b7f4f6e6c79204f776e65722063616e2063616c6c20746869732066756e6374696f60008201527f6e00000000000000000000000000000000000000000000000000000000000000602082015250565b600061095d602183610740565b915061096882610901565b604082019050919050565b6000602082019050818103600083015261098c81610950565b905091905056fea26469706673582212202d0ea2596f1e9b5f9d81e53a1ac22461c19ff7a6c45da38a9a686809d6d4327164736f6c634300080b0033",
  "immutableReferences": {},
  "source": "// SPDX-License-Identifier: GPL-3.0\n\npragma solidity >=0.7.0 <0.9.0;\n/*\n    Which function is called, fallback() or receive()?\n\n           send Ether\n               |\n         msg.data is empty?\n              / \\\n            yes  no\n            /     \\\nreceive() exists?  fallback()\n         /   \\\n        yes   no\n        /      \\\n    receive()   fallback()\n    */\n\n/// @title Timed Saving Contract\n/// @author Tobe:) \n/// @notice Store some money/ETH, and be able to withdraw it only after a specific date\ncontract TimedSavings {\n    event Deposit(uint indexed _timestamp, uint _amount);\n    event Withdrawal(uint indexed _timestamp, uint _amount);\n\n    /// @notice Stores the address of the owner of the contract\n    /// @dev The address owner has admin privileges\n    /// @return address of the owner\n    address public owner;\n\n    /// @notice The earliest date owner/depositor can withdraw funds\n    /// @dev withdrawalDate is set in the constructor, and can not be modified \n    /// @return Returns uint the earliest withdrawal date in epoch format\n    uint public withdrawalDate;\n\n\n    modifier onlyOwner(){\n        require(msg.sender == owner, \"Only Owner can call this function\");\n        _;\n    }\n    modifier hasSufficientBalance(uint _amount){\n        require(_amount <= address(this).balance, \"Insufficient Contract Balance\");\n        _;\n    }\n\n    modifier afterDate(uint _targetDate){\n        require(block.timestamp >= _targetDate, \"Required date has not been reached\");\n        _;\n    }\n\n\n    constructor(uint noDays) payable{\n        withdrawalDate = block.timestamp + (noDays * 1 days);\n        owner = msg.sender;\n    }\n\n    // Fallback function is called when msg.data is not empty/if contract does not have a receieve function\n    fallback() external payable {\n        require(msg.sender == owner);\n        emit Deposit(block.timestamp, msg.value);\n    }\n\n    function depositAmount() public onlyOwner payable returns(bool){\n        emit Deposit(block.timestamp, msg.value);\n        return true;\n    }\n    \n    function withdrawAmount(uint256 amount) \n        public \n        hasSufficientBalance(amount) \n        afterDate(withdrawalDate)\n        returns(bool sent, bytes memory data)\n    {\n        (sent, data) = payable(owner).call{value: amount}(\"\");\n        require(sent, \"Failed to send Ether\");\n    }\n\n    function closeAccount() \n        public \n        onlyOwner\n        afterDate(withdrawalDate)\n    {\n        selfdestruct(payable(owner));\n    }\n\n    function balance() public view returns(uint _balance){\n        _balance = address(this).balance;\n    }\n}",
  "sourcePath": "/mnt/c/Users/user/documents/coding/blockgames/projects/Working With Time In Solidity/contracts/TimedSavings.sol",
  "compiler": {
    "name": "solc",
    "version": "0.8.11+commit.d7f03943.Emscripten.clang"
  },
  "schemaVersion": "3.4.5",
  "updatedAt": "2022-04-01T22:04:04.240Z",
  "networkType": "ethereum",
  "devdoc": {
    "author": "Tobe:) ",
    "kind": "dev",
    "methods": {},
    "stateVariables": {
      "owner": {
        "details": "The address owner has admin privileges",
        "return": "address of the owner",
        "returns": {
          "_0": "address of the owner"
        }
      },
      "withdrawalDate": {
        "details": "withdrawalDate is set in the constructor, and can not be modified ",
        "return": "Returns uint the earliest withdrawal date in epoch format",
        "returns": {
          "_0": "Returns uint the earliest withdrawal date in epoch format"
        }
      }
    },
    "title": "Timed Saving Contract",
    "version": 1
  },
  "userdoc": {
    "kind": "user",
    "methods": {
      "owner()": {
        "notice": "Stores the address of the owner of the contract"
      },
      "withdrawalDate()": {
        "notice": "The earliest date owner/depositor can withdraw funds"
      }
    },
    "notice": "Store some money/ETH, and be able to withdraw it only after a specific date",
    "version": 1
  }
}